{
  "contractName": "AdminController",
  "abi": [
    {
      "anonymous": false,
      "inputs": [
        {
          "indexed": true,
          "internalType": "address",
          "name": "previousOwner",
          "type": "address"
        },
        {
          "indexed": true,
          "internalType": "address",
          "name": "newOwner",
          "type": "address"
        }
      ],
      "name": "OwnershipTransferred",
      "type": "event"
    },
    {
      "inputs": [],
      "name": "owner",
      "outputs": [
        {
          "internalType": "address",
          "name": "",
          "type": "address"
        }
      ],
      "stateMutability": "view",
      "type": "function"
    },
    {
      "inputs": [],
      "name": "renounceOwnership",
      "outputs": [],
      "stateMutability": "nonpayable",
      "type": "function"
    },
    {
      "inputs": [
        {
          "internalType": "address",
          "name": "newOwner",
          "type": "address"
        }
      ],
      "name": "transferOwnership",
      "outputs": [],
      "stateMutability": "nonpayable",
      "type": "function"
    },
    {
      "inputs": [],
      "name": "getAllContracts",
      "outputs": [
        {
          "components": [
            {
              "internalType": "string",
              "name": "name",
              "type": "string"
            },
            {
              "internalType": "string",
              "name": "symbol",
              "type": "string"
            },
            {
              "internalType": "address",
              "name": "addrToken",
              "type": "address"
            },
            {
              "internalType": "address",
              "name": "addrAuction",
              "type": "address"
            },
            {
              "internalType": "address",
              "name": "owner",
              "type": "address"
            },
            {
              "internalType": "uint256",
              "name": "id",
              "type": "uint256"
            },
            {
              "internalType": "bool",
              "name": "valid",
              "type": "bool"
            }
          ],
          "internalType": "struct AdminController.ContractStruct[]",
          "name": "",
          "type": "tuple[]"
        }
      ],
      "stateMutability": "view",
      "type": "function"
    },
    {
      "inputs": [
        {
          "internalType": "string",
          "name": "_name",
          "type": "string"
        },
        {
          "internalType": "string",
          "name": "_symbol",
          "type": "string"
        },
        {
          "internalType": "string",
          "name": "_initBaseURI",
          "type": "string"
        },
        {
          "internalType": "address",
          "name": "tokenContract",
          "type": "address"
        },
        {
          "internalType": "address",
          "name": "auctionContract",
          "type": "address"
        }
      ],
      "name": "addContract",
      "outputs": [],
      "stateMutability": "nonpayable",
      "type": "function"
    },
    {
      "inputs": [
        {
          "internalType": "address",
          "name": "oldAddrAuction",
          "type": "address"
        },
        {
          "internalType": "address",
          "name": "newAddrAuction",
          "type": "address"
        }
      ],
      "name": "updateContract",
      "outputs": [],
      "stateMutability": "nonpayable",
      "type": "function"
    },
    {
      "inputs": [],
      "name": "getMyContractAddress",
      "outputs": [
        {
          "internalType": "address",
          "name": "",
          "type": "address"
        }
      ],
      "stateMutability": "view",
      "type": "function"
    },
    {
      "inputs": [
        {
          "internalType": "bool",
          "name": "pause",
          "type": "bool"
        }
      ],
      "name": "pauseAllContracts",
      "outputs": [],
      "stateMutability": "nonpayable",
      "type": "function"
    }
  ],
  "bytecode": "0x608060405234801561001057600080fd5b5061001a3361001f565b61006f565b600080546001600160a01b038381166001600160a01b0319831681178455604051919092169283917f8be0079c531659141344cd1fd0a4f28419497f9722a3daafe3b4186f6b6457e09190a35050565b610ca48061007e6000396000f3fe608060405234801561001057600080fd5b50600436106100885760003560e01c80638da5cb5b1161005b5780638da5cb5b146100e8578063ee33d19c146100f9578063f2fde38b1461010c578063fc8d30111461011f57600080fd5b806318d3ce961461008d5780635102ab9a146100ab578063562ba89c146100cb578063715018a6146100e0575b600080fd5b610095610132565b6040516100a29190610ae4565b60405180910390f35b6100b361038b565b6040516001600160a01b0390911681526020016100a2565b6100de6100d93660046109ed565b610414565b005b6100de610524565b6000546001600160a01b03166100b3565b6100de610107366004610998565b610563565b6100de61011a366004610976565b610600565b6100de61012d3660046109cb565b61069b565b6060600060025467ffffffffffffffff81111561015157610151610c58565b6040519080825280602002602001820160405280156101bb57816020015b6040805160e081018252606080825260208201819052600092820183905281018290526080810182905260a0810182905260c081019190915281526020019060019003908161016f5790505b50905060005b6002548110156103855760008181526001602052604090819020815160e0810190925280549091908290829082906101f890610be4565b80601f016020809104026020016040519081016040528092919081815260200182805461022490610be4565b80156102715780601f1061024657610100808354040283529160200191610271565b820191906000526020600020905b81548152906001019060200180831161025457829003601f168201915b5050505050815260200160018201805461028a90610be4565b80601f01602080910402602001604051908101604052809291908181526020018280546102b690610be4565b80156103035780601f106102d857610100808354040283529160200191610303565b820191906000526020600020905b8154815290600101906020018083116102e657829003601f168201915b505050918352505060028201546001600160a01b03908116602083015260038301548116604083015260048301541660608201526005820154608082015260069091015460ff16151560a090910152835184908490811061036657610366610c42565b602002602001018190525050808061037d90610c19565b9150506101c1565b50919050565b6000805b600254811015610410576000818152600160205260409020600401546001600160a01b0316331480156103d9575060008181526001602081905260409091206006015460ff161515145b156103fe576000908152600160205260409020600301546001600160a01b0316919050565b8061040881610c19565b91505061038f565b5090565b6040805160e08101825286815260208082018790526001600160a01b03808616838501528416606083015233608083015260025460a08301819052600160c0840181905260009182528252929092208151805192939192610478928492019061083d565b506020828101518051610491926001850192019061083d565b506040820151600282810180546001600160a01b03199081166001600160a01b039485161790915560608501516003850180548316918516919091179055608085015160048501805490921693169290921790915560a0830151600583015560c0909201516006909101805460ff1916911515919091179055805490600061051883610c19565b91905055505050505050565b6000546001600160a01b031633146105575760405162461bcd60e51b815260040161054e90610baf565b60405180910390fd5b61056160006107ed565b565b60005b6002548110156105fb5760008181526001602081905260409091206006015460ff1615151480156105b357506000818152600160205260409020600301546001600160a01b038481169116145b156105e957600081815260016020526040902060030180546001600160a01b0384166001600160a01b0319909116179055505050565b806105f381610c19565b915050610566565b505050565b6000546001600160a01b0316331461062a5760405162461bcd60e51b815260040161054e90610baf565b6001600160a01b03811661068f5760405162461bcd60e51b815260206004820152602660248201527f4f776e61626c653a206e6577206f776e657220697320746865207a65726f206160448201526564647265737360d01b606482015260840161054e565b610698816107ed565b50565b6000546001600160a01b031633146106c55760405162461bcd60e51b815260040161054e90610baf565b60005b6002548110156107e95760008181526001602081905260409091206006015460ff16151514156107d757600081815260016020526040908190206003015490516302329a2960e01b815283151560048201526001600160a01b039091169081906302329a2990602401600060405180830381600087803b15801561074b57600080fd5b505af115801561075f573d6000803e3d6000fd5b505050600083815260016020526040908190206002015490516302329a2960e01b815285151560048201526001600160a01b03909116915081906302329a2990602401600060405180830381600087803b1580156107bc57600080fd5b505af11580156107d0573d6000803e3d6000fd5b5050505050505b806107e181610c19565b9150506106c8565b5050565b600080546001600160a01b038381166001600160a01b0319831681178455604051919092169283917f8be0079c531659141344cd1fd0a4f28419497f9722a3daafe3b4186f6b6457e09190a35050565b82805461084990610be4565b90600052602060002090601f01602090048101928261086b57600085556108b1565b82601f1061088457805160ff19168380011785556108b1565b828001600101855582156108b1579182015b828111156108b1578251825591602001919060010190610896565b506104109291505b8082111561041057600081556001016108b9565b80356001600160a01b03811681146108e457600080fd5b919050565b600082601f8301126108fa57600080fd5b813567ffffffffffffffff8082111561091557610915610c58565b604051601f8301601f19908116603f0116810190828211818310171561093d5761093d610c58565b8160405283815286602085880101111561095657600080fd5b836020870160208301376000602085830101528094505050505092915050565b60006020828403121561098857600080fd5b610991826108cd565b9392505050565b600080604083850312156109ab57600080fd5b6109b4836108cd565b91506109c2602084016108cd565b90509250929050565b6000602082840312156109dd57600080fd5b8135801515811461099157600080fd5b600080600080600060a08688031215610a0557600080fd5b853567ffffffffffffffff80821115610a1d57600080fd5b610a2989838a016108e9565b96506020880135915080821115610a3f57600080fd5b610a4b89838a016108e9565b95506040880135915080821115610a6157600080fd5b50610a6e888289016108e9565b935050610a7d606087016108cd565b9150610a8b608087016108cd565b90509295509295909350565b6000815180845260005b81811015610abd57602081850181015186830182015201610aa1565b81811115610acf576000602083870101525b50601f01601f19169290920160200192915050565b60006020808301818452808551808352604092508286019150828160051b87010184880160005b83811015610ba157603f19898403018552815160e08151818652610b3182870182610a97565b915050888201518582038a870152610b498282610a97565b838a01516001600160a01b03908116888c01526060808601518216908901526080808601519091169088015260a0808501519088015260c0938401511515939096019290925250509386019390860190600101610b0b565b509098975050505050505050565b6020808252818101527f4f776e61626c653a2063616c6c6572206973206e6f7420746865206f776e6572604082015260600190565b600181811c90821680610bf857607f821691505b6020821081141561038557634e487b7160e01b600052602260045260246000fd5b6000600019821415610c3b57634e487b7160e01b600052601160045260246000fd5b5060010190565b634e487b7160e01b600052603260045260246000fd5b634e487b7160e01b600052604160045260246000fdfea264697066735822122063a7bd0f004cb73d8fc6ac3d55a5982b9aef54ef136e96233d617b2af66c0ced64736f6c63430008060033",
  "immutableReferences": {},
  "source": "// SPDX-License-Identifier: MIT\r\n// ADMIN CONTROLLER\r\npragma solidity ^0.8.0;\r\n\r\nimport '@openzeppelin/contracts/access/Ownable.sol';\r\nimport './AuctionContract.sol';\r\nimport './AuctionController.sol';\r\nimport './TokenContract.sol';\r\n\r\ncontract AdminController is Ownable {\r\n\r\n    struct ContractStruct {\r\n        string name;\r\n        string symbol;\r\n        address addrToken;\r\n        address addrAuction;\r\n        address owner;\r\n        uint256 id;\r\n        bool valid;\r\n    }\r\n\r\n    mapping( uint256 => ContractStruct ) _contracts;\r\n    uint256 countContract;\r\n\r\n    function getAllContracts() external view returns (ContractStruct[] memory){\r\n        ContractStruct[] memory result = new ContractStruct[](countContract);\r\n        for(uint256 i = 0; i < countContract; i++){\r\n            ContractStruct storage classe = _contracts[i];\r\n            result[i] = classe;\r\n        }\r\n        return result;\r\n    }\r\n\r\n    /*function createContract(string memory _name, string memory _symbol, string memory _initBaseURI) external {\r\n        TokenContract instanceTokenContract = new TokenContract(_name, _symbol, _initBaseURI);\r\n        AuctionContract instanceAuctionContract = new AuctionContract(address(instanceTokenContract));\r\n        _contracts[countContract] = ContractStruct(_name, _symbol,address(instanceTokenContract),address(instanceAuctionContract),msg.sender,countContract,true);\r\n        countContract++;\r\n    }*/\r\n\r\n    function addContract(string memory _name, string memory _symbol, string memory _initBaseURI, address tokenContract, address auctionContract ) external{\r\n        _contracts[countContract] = ContractStruct(_name, _symbol,tokenContract,auctionContract,msg.sender,countContract,true);\r\n        countContract++;\r\n    }\r\n\r\n    function updateContract(address oldAddrAuction, address newAddrAuction) external{\r\n        for(uint256 i = 0; i < countContract; i++){\r\n            if(_contracts[i].valid == true && _contracts[i].addrAuction == oldAddrAuction){\r\n                _contracts[i].addrAuction = newAddrAuction;\r\n                break;\r\n            }\r\n        }\r\n    }\r\n\r\n    function getMyContractAddress() external view returns(address){\r\n        for (uint256 index = 0; index < countContract; index++) {\r\n            if(_contracts[index].owner == msg.sender && _contracts[index].valid == true){\r\n                return _contracts[index].addrAuction;\r\n            }\r\n        }\r\n    }\r\n\r\n    function pauseAllContracts(bool pause) external onlyOwner {\r\n        for (uint256 index = 0; index < countContract; index++) {\r\n            if(_contracts[index].valid==true){\r\n                AuctionContract _auctionContrat = AuctionContract(_contracts[index].addrAuction);\r\n                _auctionContrat.pause(pause);\r\n                TokenContract _tokenContract = TokenContract(_contracts[index].addrToken);\r\n                _tokenContract.pause(pause);\r\n            }\r\n        }\r\n    }\r\n\r\n    /*function pauseOneContracts(bool pause) external onlyOwner {\r\n        for (uint256 index = 0; index < countContract; index++) {\r\n            if(_contracts[index].valid==true && ){\r\n                AuctionContract _auctionContrat = AuctionContract(_contracts[index].addrAuction);\r\n                _auctionContrat.pause(pause);\r\n                TokenContract _tokenContract = TokenContract(_contracts[index].addrToken);\r\n                _tokenContract.pause(pause);\r\n            }\r\n        }\r\n    }*/\r\n\r\n}\r\n",
  "sourcePath": "C:\\Users\\KevinDell'ova\\Desktop\\Inverse contracts\\contracts\\AdminContract.sol",
  "compiler": {
    "name": "solc",
    "version": "0.8.6+commit.11564f7e.Emscripten.clang"
  },
  "schemaVersion": "3.4.4",
  "updatedAt": "2022-03-08T10:34:37.631Z",
  "networkType": "ethereum",
  "devdoc": {
    "kind": "dev",
    "methods": {
      "owner()": {
        "details": "Returns the address of the current owner."
      },
      "renounceOwnership()": {
        "details": "Leaves the contract without owner. It will not be possible to call `onlyOwner` functions anymore. Can only be called by the current owner. NOTE: Renouncing ownership will leave the contract without an owner, thereby removing any functionality that is only available to the owner."
      },
      "transferOwnership(address)": {
        "details": "Transfers ownership of the contract to a new account (`newOwner`). Can only be called by the current owner."
      }
    },
    "version": 1
  },
  "userdoc": {
    "kind": "user",
    "methods": {},
    "version": 1
  }
}