{
  "contractName": "AdminController",
  "abi": [
    {
      "inputs": [],
      "stateMutability": "nonpayable",
      "type": "constructor"
    },
    {
      "anonymous": false,
      "inputs": [
        {
          "indexed": true,
          "internalType": "address",
          "name": "previousOwner",
          "type": "address"
        },
        {
          "indexed": true,
          "internalType": "address",
          "name": "newOwner",
          "type": "address"
        }
      ],
      "name": "OwnershipTransferred",
      "type": "event"
    },
    {
      "inputs": [],
      "name": "owner",
      "outputs": [
        {
          "internalType": "address",
          "name": "",
          "type": "address"
        }
      ],
      "stateMutability": "view",
      "type": "function",
      "constant": true
    },
    {
      "inputs": [],
      "name": "renounceOwnership",
      "outputs": [],
      "stateMutability": "nonpayable",
      "type": "function"
    },
    {
      "inputs": [
        {
          "internalType": "address",
          "name": "newOwner",
          "type": "address"
        }
      ],
      "name": "transferOwnership",
      "outputs": [],
      "stateMutability": "nonpayable",
      "type": "function"
    },
    {
      "inputs": [],
      "name": "getAllContracts",
      "outputs": [
        {
          "components": [
            {
              "internalType": "string",
              "name": "name",
              "type": "string"
            },
            {
              "internalType": "string",
              "name": "symbol",
              "type": "string"
            },
            {
              "internalType": "address",
              "name": "addrToken",
              "type": "address"
            },
            {
              "internalType": "address",
              "name": "addrAuction",
              "type": "address"
            },
            {
              "internalType": "address",
              "name": "owner",
              "type": "address"
            },
            {
              "internalType": "uint256",
              "name": "id",
              "type": "uint256"
            },
            {
              "internalType": "bool",
              "name": "valid",
              "type": "bool"
            }
          ],
          "internalType": "struct AdminController.ContractStruct[]",
          "name": "",
          "type": "tuple[]"
        }
      ],
      "stateMutability": "view",
      "type": "function",
      "constant": true
    },
    {
      "inputs": [
        {
          "internalType": "string",
          "name": "_name",
          "type": "string"
        },
        {
          "internalType": "string",
          "name": "_symbol",
          "type": "string"
        },
        {
          "internalType": "string",
          "name": "_initBaseURI",
          "type": "string"
        }
      ],
      "name": "createContract",
      "outputs": [],
      "stateMutability": "nonpayable",
      "type": "function"
    },
    {
      "inputs": [
        {
          "internalType": "string",
          "name": "_name",
          "type": "string"
        },
        {
          "internalType": "string",
          "name": "_symbol",
          "type": "string"
        },
        {
          "internalType": "string",
          "name": "_initBaseURI",
          "type": "string"
        },
        {
          "internalType": "address",
          "name": "tokenContract",
          "type": "address"
        },
        {
          "internalType": "address",
          "name": "auctionContract",
          "type": "address"
        }
      ],
      "name": "addContract",
      "outputs": [],
      "stateMutability": "nonpayable",
      "type": "function"
    },
    {
      "inputs": [
        {
          "internalType": "address",
          "name": "oldAddrAuction",
          "type": "address"
        },
        {
          "internalType": "address",
          "name": "newAddrAuction",
          "type": "address"
        }
      ],
      "name": "updateContract",
      "outputs": [],
      "stateMutability": "nonpayable",
      "type": "function"
    },
    {
      "inputs": [],
      "name": "getMyContractAddress",
      "outputs": [
        {
          "internalType": "address",
          "name": "",
          "type": "address"
        }
      ],
      "stateMutability": "view",
      "type": "function",
      "constant": true
    },
    {
      "inputs": [
        {
          "internalType": "bool",
          "name": "pause",
          "type": "bool"
        }
      ],
      "name": "pauseAllContracts",
      "outputs": [],
      "stateMutability": "nonpayable",
      "type": "function"
    }
  ],
  "bytecode": "0x608060405234801561001057600080fd5b5061001a3361001f565b61006f565b600080546001600160a01b038381166001600160a01b0319831681178455604051919092169283917f8be0079c531659141344cd1fd0a4f28419497f9722a3daafe3b4186f6b6457e09190a35050565b615abb8061007e6000396000f3fe60806040523480156200001157600080fd5b50600436106200009f5760003560e01c80638da5cb5b116200006e5780638da5cb5b146200010c578063de2143d8146200011e578063ee33d19c1462000135578063f2fde38b146200014c578063fc8d3011146200016357600080fd5b806318d3ce9614620000a45780635102ab9a14620000c6578063562ba89c14620000e9578063715018a61462000102575b600080fd5b620000ae6200017a565b604051620000bd919062000d40565b60405180910390f35b620000d0620003ef565b6040516001600160a01b039091168152602001620000bd565b62000100620000fa36600462000c38565b6200047e565b005b6200010062000594565b6000546001600160a01b0316620000d0565b620001006200012f36600462000ba6565b620005d8565b620001006200014636600462000b4a565b620006c2565b620001006200015d36600462000b25565b62000765565b620001006200017436600462000b82565b62000807565b6060600060025467ffffffffffffffff8111156200019c576200019c62000f06565b6040519080825280602002602001820160405280156200020857816020015b6040805160e081018252606080825260208201819052600092820183905281018290526080810182905260a0810182905260c0810191909152815260200190600190039081620001bb5790505b50905060005b600254811015620003e95760008181526001602052604090819020815160e081019092528054909190829082908290620002489062000e8f565b80601f0160208091040260200160405190810160405280929190818152602001828054620002769062000e8f565b8015620002c75780601f106200029b57610100808354040283529160200191620002c7565b820191906000526020600020905b815481529060010190602001808311620002a957829003601f168201915b50505050508152602001600182018054620002e29062000e8f565b80601f0160208091040260200160405190810160405280929190818152602001828054620003109062000e8f565b8015620003615780601f10620003355761010080835404028352916020019162000361565b820191906000526020600020905b8154815290600101906020018083116200034357829003601f168201915b505050918352505060028201546001600160a01b03908116602083015260038301548116604083015260048301541660608201526005820154608082015260069091015460ff16151560a0909101528351849084908110620003c757620003c762000ef0565b6020026020010181905250508080620003e09062000ec6565b9150506200020e565b50919050565b6000805b6002548110156200047a576000818152600160205260409020600401546001600160a01b0316331480156200043f575060008181526001602081905260409091206006015460ff161515145b1562000465576000908152600160205260409020600301546001600160a01b0316919050565b80620004718162000ec6565b915050620003f3565b5090565b6040805160e08101825286815260208082018790526001600160a01b03808616838501528416606083015233608083015260025460a08301819052600160c0840181905260009182528252929092208151805192939192620004e49284920190620009b5565b506020828101518051620004ff9260018501920190620009b5565b506040820151600282810180546001600160a01b03199081166001600160a01b039485161790915560608501516003850180548316918516919091179055608085015160048501805490921693169290921790915560a0830151600583015560c0909201516006909101805460ff19169115159190911790558054906000620005888362000ec6565b91905055505050505050565b6000546001600160a01b03163314620005ca5760405162461bcd60e51b8152600401620005c19062000e5a565b60405180910390fd5b620005d6600062000965565b565b6000838383604051620005eb9062000a40565b620005f99392919062000e11565b604051809103906000f08015801562000616573d6000803e3d6000fd5b5090506000816040516200062a9062000a4e565b6001600160a01b039091168152602001604051809103906000f08015801562000657573d6000803e3d6000fd5b506040805160e08101825287815260208082018890526001600160a01b03808716838501528416606083015233608083015260025460a08301819052600160c0840181905260009182528252929092208151805194955091939092620004e4928492910190620009b5565b60005b600254811015620007605760008181526001602081905260409091206006015460ff1615151480156200071457506000818152600160205260409020600301546001600160a01b038481169116145b156200074b57600081815260016020526040902060030180546001600160a01b0384166001600160a01b0319909116179055505050565b80620007578162000ec6565b915050620006c5565b505050565b6000546001600160a01b03163314620007925760405162461bcd60e51b8152600401620005c19062000e5a565b6001600160a01b038116620007f95760405162461bcd60e51b815260206004820152602660248201527f4f776e61626c653a206e6577206f776e657220697320746865207a65726f206160448201526564647265737360d01b6064820152608401620005c1565b620008048162000965565b50565b6000546001600160a01b03163314620008345760405162461bcd60e51b8152600401620005c19062000e5a565b60005b600254811015620009615760008181526001602081905260409091206006015460ff16151514156200094c57600081815260016020526040908190206003015490516302329a2960e01b815283151560048201526001600160a01b039091169081906302329a2990602401600060405180830381600087803b158015620008bd57600080fd5b505af1158015620008d2573d6000803e3d6000fd5b505050600083815260016020526040908190206002015490516302329a2960e01b815285151560048201526001600160a01b03909116915081906302329a2990602401600060405180830381600087803b1580156200093057600080fd5b505af115801562000945573d6000803e3d6000fd5b5050505050505b80620009588162000ec6565b91505062000837565b5050565b600080546001600160a01b038381166001600160a01b0319831681178455604051919092169283917f8be0079c531659141344cd1fd0a4f28419497f9722a3daafe3b4186f6b6457e09190a35050565b828054620009c39062000e8f565b90600052602060002090601f016020900481019282620009e7576000855562000a32565b82601f1062000a0257805160ff191683800117855562000a32565b8280016001018555821562000a32579182015b8281111562000a3257825182559160200191906001019062000a15565b506200047a92915062000a5c565b612e578062000f1d83390190565b611d128062003d7483390190565b5b808211156200047a576000815560010162000a5d565b80356001600160a01b038116811462000a8b57600080fd5b919050565b600082601f83011262000aa257600080fd5b813567ffffffffffffffff8082111562000ac05762000ac062000f06565b604051601f8301601f19908116603f0116810190828211818310171562000aeb5762000aeb62000f06565b8160405283815286602085880101111562000b0557600080fd5b836020870160208301376000602085830101528094505050505092915050565b60006020828403121562000b3857600080fd5b62000b438262000a73565b9392505050565b6000806040838503121562000b5e57600080fd5b62000b698362000a73565b915062000b796020840162000a73565b90509250929050565b60006020828403121562000b9557600080fd5b8135801515811462000b4357600080fd5b60008060006060848603121562000bbc57600080fd5b833567ffffffffffffffff8082111562000bd557600080fd5b62000be38783880162000a90565b9450602086013591508082111562000bfa57600080fd5b62000c088783880162000a90565b9350604086013591508082111562000c1f57600080fd5b5062000c2e8682870162000a90565b9150509250925092565b600080600080600060a0868803121562000c5157600080fd5b853567ffffffffffffffff8082111562000c6a57600080fd5b62000c7889838a0162000a90565b9650602088013591508082111562000c8f57600080fd5b62000c9d89838a0162000a90565b9550604088013591508082111562000cb457600080fd5b5062000cc38882890162000a90565b93505062000cd46060870162000a73565b915062000ce46080870162000a73565b90509295509295909350565b6000815180845260005b8181101562000d185760208185018101518683018201520162000cfa565b8181111562000d2b576000602083870101525b50601f01601f19169290920160200192915050565b60006020808301818452808551808352604092508286019150828160051b87010184880160005b8381101562000e0357603f19898403018552815160e0815181865262000d908287018262000cf0565b915050888201518582038a87015262000daa828262000cf0565b838a01516001600160a01b03908116888c01526060808601518216908901526080808601519091169088015260a0808501519088015260c093840151151593909601929092525050938601939086019060010162000d67565b509098975050505050505050565b60608152600062000e26606083018662000cf0565b828103602084015262000e3a818662000cf0565b9050828103604084015262000e50818562000cf0565b9695505050505050565b6020808252818101527f4f776e61626c653a2063616c6c6572206973206e6f7420746865206f776e6572604082015260600190565b600181811c9082168062000ea457607f821691505b60208210811415620003e957634e487b7160e01b600052602260045260246000fd5b600060001982141562000ee957634e487b7160e01b600052601160045260246000fd5b5060010190565b634e487b7160e01b600052603260045260246000fd5b634e487b7160e01b600052604160045260246000fdfe60c06040526005608081905264173539b7b760d91b60a09081526200002891600c919062000191565b50600d805460ff191690553480156200004057600080fd5b5060405162002e5738038062002e578339810160408190526200006391620002ee565b8251839083906200007c90600090602085019062000191565b5080516200009290600190602084019062000191565b505050620000af620000a9620000c360201b60201c565b620000c7565b620000ba8162000119565b505050620003d2565b3390565b600780546001600160a01b038381166001600160a01b0319831681179093556040519116919082907f8be0079c531659141344cd1fd0a4f28419497f9722a3daafe3b4186f6b6457e090600090a35050565b6007546001600160a01b03163314620001785760405162461bcd60e51b815260206004820181905260248201527f4f776e61626c653a2063616c6c6572206973206e6f7420746865206f776e6572604482015260640160405180910390fd5b80516200018d90600b90602084019062000191565b5050565b8280546200019f906200037f565b90600052602060002090601f016020900481019282620001c357600085556200020e565b82601f10620001de57805160ff19168380011785556200020e565b828001600101855582156200020e579182015b828111156200020e578251825591602001919060010190620001f1565b506200021c92915062000220565b5090565b5b808211156200021c576000815560010162000221565b600082601f8301126200024957600080fd5b81516001600160401b0380821115620002665762000266620003bc565b604051601f8301601f19908116603f01168101908282118183101715620002915762000291620003bc565b81604052838152602092508683858801011115620002ae57600080fd5b600091505b83821015620002d25785820183015181830184015290820190620002b3565b83821115620002e45760008385830101525b9695505050505050565b6000806000606084860312156200030457600080fd5b83516001600160401b03808211156200031c57600080fd5b6200032a8783880162000237565b945060208601519150808211156200034157600080fd5b6200034f8783880162000237565b935060408601519150808211156200036657600080fd5b50620003758682870162000237565b9150509250925092565b600181811c908216806200039457607f821691505b60208210811415620003b657634e487b7160e01b600052602260045260246000fd5b50919050565b634e487b7160e01b600052604160045260246000fd5b612a7580620003e26000396000f3fe608060405234801561001057600080fd5b50600436106101e55760003560e01c8063836387101161010f578063c6682862116100a2578063db7e9f1011610071578063db7e9f101461040e578063e985e9c514610421578063f26bf0b71461045d578063f2fde38b1461047057600080fd5b8063c6682862146103ca578063c87b56dd146103d2578063c8fe5344146103e5578063cc372734146103fb57600080fd5b8063a22cb465116100de578063a22cb46514610371578063b88d4fde14610384578063beabacc814610397578063c1e03728146103aa57600080fd5b8063836387101461033057806385e3c1d4146103435780638da5cb5b1461035857806395d89b411461036957600080fd5b806342842e0e116101875780636352211e116101565780636352211e146102ec5780636c0360eb146102ff57806370a0823114610307578063715018a61461032857600080fd5b806342842e0e146102a057806342966c68146102b357806348972034146102c657806355f804b3146102d957600080fd5b8063081812fc116101c3578063081812fc1461023c578063095ea7b31461026757806323b872dd1461027a5780633cb119441461028d57600080fd5b806301ffc9a7146101ea57806302329a291461021257806306fdde0314610227575b600080fd5b6101fd6101f83660046123b2565b610483565b60405190151581526020015b60405180910390f35b610225610220366004612397565b6104d5565b005b61022f61051b565b6040516102099190612740565b61024f61024a366004612546565b6105ad565b6040516001600160a01b039091168152602001610209565b61022561027536600461236d565b610635565b6102256102883660046121fe565b61074b565b61022561029b366004612421565b61077c565b6102256102ae3660046121fe565b6107cb565b6102256102c1366004612546565b6107e6565b6102256102d43660046121b0565b610849565b6102256102e73660046123ec565b61089b565b61024f6102fa366004612546565b6108dc565b61022f610953565b61031a6103153660046121b0565b6109e1565b604051908152602001610209565b610225610a68565b61024f61033e366004612546565b610a9e565b61034b610aa9565b60405161020991906126de565b6007546001600160a01b031661024f565b61022f610d0b565b61022561037f3660046122b6565b610d1a565b61022561039236600461223a565b610d25565b6102256103a53660046121fe565b610d5d565b6103bd6103b8366004612546565b610dcf565b604051610209919061286d565b61022f610f96565b61022f6103e0366004612546565b610fa3565b600d5461010090046001600160a01b031661024f565b6102256104093660046122e0565b61110d565b61022561041c366004612466565b611250565b6101fd61042f3660046121cb565b6001600160a01b03918216600090815260056020908152604080832093909416825291909152205460ff1690565b61031a61046b3660046123ec565b611387565b61022561047e3660046121b0565b6113af565b60006001600160e01b031982166380ac58cd60e01b14806104b457506001600160e01b03198216635b5e139f60e01b145b806104cf57506301ffc9a760e01b6001600160e01b03198316145b92915050565b6007546001600160a01b031633146105085760405162461bcd60e51b81526004016104ff906127e7565b60405180910390fd5b600d805460ff1916911515919091179055565b60606000805461052a9061296d565b80601f01602080910402602001604051908101604052809291908181526020018280546105569061296d565b80156105a35780601f10610578576101008083540402835291602001916105a3565b820191906000526020600020905b81548152906001019060200180831161058657829003601f168201915b5050505050905090565b60006105b882611447565b6106195760405162461bcd60e51b815260206004820152602c60248201527f4552433732313a20617070726f76656420717565727920666f72206e6f6e657860448201526b34b9ba32b73a103a37b5b2b760a11b60648201526084016104ff565b506000908152600460205260409020546001600160a01b031690565b6000610640826108dc565b9050806001600160a01b0316836001600160a01b031614156106ae5760405162461bcd60e51b815260206004820152602160248201527f4552433732313a20617070726f76616c20746f2063757272656e74206f776e656044820152603960f91b60648201526084016104ff565b336001600160a01b03821614806106ca57506106ca813361042f565b61073c5760405162461bcd60e51b815260206004820152603860248201527f4552433732313a20617070726f76652063616c6c6572206973206e6f74206f7760448201527f6e6572206e6f7220617070726f76656420666f7220616c6c000000000000000060648201526084016104ff565b6107468383611464565b505050565b61075533826114d2565b6107715760405162461bcd60e51b81526004016104ff9061281c565b6107468383836115b8565b6007546001600160a01b031633146107a65760405162461bcd60e51b81526004016104ff906127e7565b806009836040516107b79190612656565b908152604051908190036020019020555050565b61074683838360405180602001604052806000815250610d25565b600d5461010090046001600160a01b03163314806108125750600d5461010090046001600160a01b0316155b80156108215750600d5460ff16155b61083d5760405162461bcd60e51b81526004016104ff90612753565b61084681611754565b50565b6007546001600160a01b031633146108735760405162461bcd60e51b81526004016104ff906127e7565b600d80546001600160a01b0390921661010002610100600160a81b0319909216919091179055565b6007546001600160a01b031633146108c55760405162461bcd60e51b81526004016104ff906127e7565b80516108d890600b906020840190611e73565b5050565b6000818152600260205260408120546001600160a01b0316806104cf5760405162461bcd60e51b815260206004820152602960248201527f4552433732313a206f776e657220717565727920666f72206e6f6e657869737460448201526832b73a103a37b5b2b760b91b60648201526084016104ff565b600b80546109609061296d565b80601f016020809104026020016040519081016040528092919081815260200182805461098c9061296d565b80156109d95780601f106109ae576101008083540402835291602001916109d9565b820191906000526020600020905b8154815290600101906020018083116109bc57829003601f168201915b505050505081565b60006001600160a01b038216610a4c5760405162461bcd60e51b815260206004820152602a60248201527f4552433732313a2062616c616e636520717565727920666f7220746865207a65604482015269726f206164647265737360b01b60648201526084016104ff565b506001600160a01b031660009081526003602052604090205490565b6007546001600160a01b03163314610a925760405162461bcd60e51b81526004016104ff906127e7565b610a9c6000611794565b565b60006104cf826108dc565b60606000610ab660085490565b67ffffffffffffffff811115610ace57610ace612a13565b604051908082528060200260200182016040528015610b3357816020015b610b20604051806080016040528060006001600160a01b031681526020016060815260200160608152602001606081525090565b815260200190600190039081610aec5790505b50905060005b600854811015610d05576000818152600a602090815260409182902082516080810190935280546001600160a01b0316835260018101805491939284929084019190610b849061296d565b80601f0160208091040260200160405190810160405280929190818152602001828054610bb09061296d565b8015610bfd5780601f10610bd257610100808354040283529160200191610bfd565b820191906000526020600020905b815481529060010190602001808311610be057829003601f168201915b5050505050815260200160028201805480602002602001604051908101604052809291908181526020018280548015610c7357602002820191906000526020600020906000905b825461010083900a900460ff16815260206001928301818104948501949093039092029101808411610c445790505b5050505050815260200160038201805480602002602001604051908101604052809291908181526020018280548015610ccb57602002820191906000526020600020905b815481526020019060010190808311610cb7575b505050505081525050838381518110610ce657610ce66129fd565b6020026020010181905250508080610cfd906129a2565b915050610b39565b50919050565b60606001805461052a9061296d565b6108d83383836117e6565b610d2f33836114d2565b610d4b5760405162461bcd60e51b81526004016104ff9061281c565b610d57848484846118b5565b50505050565b600d5461010090046001600160a01b0316331480610d895750600d5461010090046001600160a01b0316155b8015610d985750600d5460ff16155b610db45760405162461bcd60e51b81526004016104ff90612753565b610746838383604051806020016040528060008152506118b5565b610e03604051806080016040528060006001600160a01b031681526020016060815260200160608152602001606081525090565b6000828152600a602090815260409182902082516080810190935280546001600160a01b031683526001810180549192840191610e3f9061296d565b80601f0160208091040260200160405190810160405280929190818152602001828054610e6b9061296d565b8015610eb85780601f10610e8d57610100808354040283529160200191610eb8565b820191906000526020600020905b815481529060010190602001808311610e9b57829003601f168201915b5050505050815260200160028201805480602002602001604051908101604052809291908181526020018280548015610f2e57602002820191906000526020600020906000905b825461010083900a900460ff16815260206001928301818104948501949093039092029101808411610eff5790505b5050505050815260200160038201805480602002602001604051908101604052809291908181526020018280548015610f8657602002820191906000526020600020905b815481526020019060010190808311610f72575b5050505050815250509050919050565b600c80546109609061296d565b6060610fae82611447565b6110145760405162461bcd60e51b815260206004820152603160248201527f45524337323155524953746f726167653a2055524920717565727920666f72206044820152703737b732bc34b9ba32b73a103a37b5b2b760791b60648201526084016104ff565b6000828152600660205260408120805461102d9061296d565b80601f01602080910402602001604051908101604052809291908181526020018280546110599061296d565b80156110a65780601f1061107b576101008083540402835291602001916110a6565b820191906000526020600020905b81548152906001019060200180831161108957829003601f168201915b5050505050905060006110b76118e8565b90508051600014156110ca575092915050565b8151156110fc5780826040516020016110e4929190612672565b60405160208183030381529060405292505050919050565b611105846118f7565b949350505050565b600d5461010090046001600160a01b03163314806111395750600d5461010090046001600160a01b0316155b80156111485750600d5460ff16155b6111645760405162461bcd60e51b81526004016104ff90612753565b6040518060800160405280856001600160a01b0316815260200184815260200183815260200182815250600a600061119b60085490565b8152602080820192909252604001600020825181546001600160a01b0319166001600160a01b0390911617815582820151805191926111e292600185019290910190611e73565b50604082015180516111fe916002840191602090910190611ef7565b506060820151805161121a916003840191602090910190611f98565b509050506112308461122b60085490565b6119c2565b61124261123c60085490565b846119dc565b610d57600880546001019055565b600d5461010090046001600160a01b031633148061127c5750600d5461010090046001600160a01b0316155b801561128b5750600d5460ff16155b6112a75760405162461bcd60e51b81526004016104ff90612753565b806001600160a01b03166112ba836108dc565b6001600160a01b0316146113015760405162461bcd60e51b815260206004820152600e60248201526d2737ba102cb7bab9103a37b5b2b760911b60448201526064016104ff565b6000828152600a60209081526040909120845181546001600160a01b0319166001600160a01b039091161781558482015180518693611347926001850192910190611e73565b5060408201518051611363916002840191602090910190611ef7565b506060820151805161137f916003840191602090910190611f98565b505050505050565b60006009826040516113999190612656565b9081526020016040518091039020549050919050565b6007546001600160a01b031633146113d95760405162461bcd60e51b81526004016104ff906127e7565b6001600160a01b03811661143e5760405162461bcd60e51b815260206004820152602660248201527f4f776e61626c653a206e6577206f776e657220697320746865207a65726f206160448201526564647265737360d01b60648201526084016104ff565b61084681611794565b6000908152600260205260409020546001600160a01b0316151590565b600081815260046020526040902080546001600160a01b0319166001600160a01b0384169081179091558190611499826108dc565b6001600160a01b03167f8c5be1e5ebec7d5bd14f71427d1e84f3dd0314c0f7b2291e5b200ac8c7c3b92560405160405180910390a45050565b60006114dd82611447565b61153e5760405162461bcd60e51b815260206004820152602c60248201527f4552433732313a206f70657261746f7220717565727920666f72206e6f6e657860448201526b34b9ba32b73a103a37b5b2b760a11b60648201526084016104ff565b6000611549836108dc565b9050806001600160a01b0316846001600160a01b031614806115845750836001600160a01b0316611579846105ad565b6001600160a01b0316145b8061110557506001600160a01b0380821660009081526005602090815260408083209388168352929052205460ff16611105565b826001600160a01b03166115cb826108dc565b6001600160a01b03161461162f5760405162461bcd60e51b815260206004820152602560248201527f4552433732313a207472616e736665722066726f6d20696e636f72726563742060448201526437bbb732b960d91b60648201526084016104ff565b6001600160a01b0382166116915760405162461bcd60e51b8152602060048201526024808201527f4552433732313a207472616e7366657220746f20746865207a65726f206164646044820152637265737360e01b60648201526084016104ff565b61169c600082611464565b6001600160a01b03831660009081526003602052604081208054600192906116c590849061292a565b90915550506001600160a01b03821660009081526003602052604081208054600192906116f39084906128fe565b909155505060008181526002602052604080822080546001600160a01b0319166001600160a01b0386811691821790925591518493918716917fddf252ad1be2c89b69c2b068fc378daa952ba7f163c4a11628f55a4df523b3ef91a4505050565b61175d81611a67565b600081815260066020526040902080546117769061296d565b15905061084657600081815260066020526040812061084691611fd2565b600780546001600160a01b038381166001600160a01b0319831681179093556040519116919082907f8be0079c531659141344cd1fd0a4f28419497f9722a3daafe3b4186f6b6457e090600090a35050565b816001600160a01b0316836001600160a01b031614156118485760405162461bcd60e51b815260206004820152601960248201527f4552433732313a20617070726f766520746f2063616c6c65720000000000000060448201526064016104ff565b6001600160a01b03838116600081815260056020908152604080832094871680845294825291829020805460ff191686151590811790915591519182527f17307eab39ab6107e8899845ad3d59bd9653f200f220920489ca2b5937696c31910160405180910390a3505050565b6118c08484846115b8565b6118cc84848484611b02565b610d575760405162461bcd60e51b81526004016104ff90612795565b6060600b805461052a9061296d565b606061190282611447565b6119665760405162461bcd60e51b815260206004820152602f60248201527f4552433732314d657461646174613a2055524920717565727920666f72206e6f60448201526e3732bc34b9ba32b73a103a37b5b2b760891b60648201526084016104ff565b60006119706118e8565b9050600081511161199057604051806020016040528060008152506119bb565b8061199a84611c0f565b6040516020016119ab929190612672565b6040516020818303038152906040525b9392505050565b6108d8828260405180602001604052806000815250611d0d565b6119e582611447565b611a485760405162461bcd60e51b815260206004820152602e60248201527f45524337323155524953746f726167653a2055524920736574206f66206e6f6e60448201526d32bc34b9ba32b73a103a37b5b2b760911b60648201526084016104ff565b6000828152600660209081526040909120825161074692840190611e73565b6000611a72826108dc565b9050611a7f600083611464565b6001600160a01b0381166000908152600360205260408120805460019290611aa890849061292a565b909155505060008281526002602052604080822080546001600160a01b0319169055518391906001600160a01b038416907fddf252ad1be2c89b69c2b068fc378daa952ba7f163c4a11628f55a4df523b3ef908390a45050565b60006001600160a01b0384163b15611c0457604051630a85bd0160e11b81526001600160a01b0385169063150b7a0290611b469033908990889088906004016126a1565b602060405180830381600087803b158015611b6057600080fd5b505af1925050508015611b90575060408051601f3d908101601f19168201909252611b8d918101906123cf565b60015b611bea573d808015611bbe576040519150601f19603f3d011682016040523d82523d6000602084013e611bc3565b606091505b508051611be25760405162461bcd60e51b81526004016104ff90612795565b805181602001fd5b6001600160e01b031916630a85bd0160e11b149050611105565b506001949350505050565b606081611c335750506040805180820190915260018152600360fc1b602082015290565b8160005b8115611c5d5780611c47816129a2565b9150611c569050600a83612916565b9150611c37565b60008167ffffffffffffffff811115611c7857611c78612a13565b6040519080825280601f01601f191660200182016040528015611ca2576020820181803683370190505b5090505b841561110557611cb760018361292a565b9150611cc4600a866129bd565b611ccf9060306128fe565b60f81b818381518110611ce457611ce46129fd565b60200101906001600160f81b031916908160001a905350611d06600a86612916565b9450611ca6565b611d178383611d40565b611d246000848484611b02565b6107465760405162461bcd60e51b81526004016104ff90612795565b6001600160a01b038216611d965760405162461bcd60e51b815260206004820181905260248201527f4552433732313a206d696e7420746f20746865207a65726f206164647265737360448201526064016104ff565b611d9f81611447565b15611dec5760405162461bcd60e51b815260206004820152601c60248201527f4552433732313a20746f6b656e20616c7265616479206d696e7465640000000060448201526064016104ff565b6001600160a01b0382166000908152600360205260408120805460019290611e159084906128fe565b909155505060008181526002602052604080822080546001600160a01b0319166001600160a01b03861690811790915590518392907fddf252ad1be2c89b69c2b068fc378daa952ba7f163c4a11628f55a4df523b3ef908290a45050565b828054611e7f9061296d565b90600052602060002090601f016020900481019282611ea15760008555611ee7565b82601f10611eba57805160ff1916838001178555611ee7565b82800160010185558215611ee7579182015b82811115611ee7578251825591602001919060010190611ecc565b50611ef3929150612008565b5090565b82805482825590600052602060002090601f01602090048101928215611ee75791602002820160005b83821115611f5e57835183826101000a81548160ff021916908360ff1602179055509260200192600101602081600001049283019260010302611f20565b8015611f8b5782816101000a81549060ff0219169055600101602081600001049283019260010302611f5e565b5050611ef3929150612008565b828054828255906000526020600020908101928215611ee75791602002820182811115611ee7578251825591602001919060010190611ecc565b508054611fde9061296d565b6000825580601f10611fee575050565b601f01602090049060005260206000209081019061084691905b5b80821115611ef35760008155600101612009565b600067ffffffffffffffff83111561203757612037612a13565b61204a601f8401601f19166020016128a9565b905082815283838301111561205e57600080fd5b828260208301376000602084830101529392505050565b80356001600160a01b038116811461208c57600080fd5b919050565b600082601f8301126120a257600080fd5b813560206120b76120b2836128da565b6128a9565b80838252828201915082860187848660051b89010111156120d757600080fd5b60005b858110156120f6578135845292840192908401906001016120da565b5090979650505050505050565b600082601f83011261211457600080fd5b813560206121246120b2836128da565b80838252828201915082860187848660051b890101111561214457600080fd5b6000805b8681101561217257823560ff81168114612160578283fd5b85529385019391850191600101612148565b509198975050505050505050565b8035801515811461208c57600080fd5b600082601f8301126121a157600080fd5b6119bb8383356020850161201d565b6000602082840312156121c257600080fd5b6119bb82612075565b600080604083850312156121de57600080fd5b6121e783612075565b91506121f560208401612075565b90509250929050565b60008060006060848603121561221357600080fd5b61221c84612075565b925061222a60208501612075565b9150604084013590509250925092565b6000806000806080858703121561225057600080fd5b61225985612075565b935061226760208601612075565b925060408501359150606085013567ffffffffffffffff81111561228a57600080fd5b8501601f8101871361229b57600080fd5b6122aa8782356020840161201d565b91505092959194509250565b600080604083850312156122c957600080fd5b6122d283612075565b91506121f560208401612180565b600080600080608085870312156122f657600080fd5b6122ff85612075565b9350602085013567ffffffffffffffff8082111561231c57600080fd5b61232888838901612190565b9450604087013591508082111561233e57600080fd5b61234a88838901612103565b9350606087013591508082111561236057600080fd5b506122aa87828801612091565b6000806040838503121561238057600080fd5b61238983612075565b946020939093013593505050565b6000602082840312156123a957600080fd5b6119bb82612180565b6000602082840312156123c457600080fd5b81356119bb81612a29565b6000602082840312156123e157600080fd5b81516119bb81612a29565b6000602082840312156123fe57600080fd5b813567ffffffffffffffff81111561241557600080fd5b61110584828501612190565b6000806040838503121561243457600080fd5b823567ffffffffffffffff81111561244b57600080fd5b61245785828601612190565b95602094909401359450505050565b60008060006060848603121561247b57600080fd5b833567ffffffffffffffff8082111561249357600080fd5b90850190608082880312156124a757600080fd5b6124af612880565b6124b883612075565b81526020830135828111156124cc57600080fd5b6124d889828601612190565b6020830152506040830135828111156124f057600080fd5b6124fc89828601612103565b60408301525060608301358281111561251457600080fd5b61252089828601612091565b606083015250945050506020840135915061253d60408501612075565b90509250925092565b60006020828403121561255857600080fd5b5035919050565b600081518084526020808501945080840160005b8381101561258f57815187529582019590820190600101612573565b509495945050505050565b600081518084526125b2816020860160208601612941565b601f01601f19169290920160200192915050565b60018060a01b03815116825260006020808301516080828601526125ed608086018261259a565b60408581015187830391880191909152805180835290840192506000918401905b8083101561263157835160ff16825292840192600192909201919084019061260e565b5060608601519350868103606088015261264b818561255f565b979650505050505050565b60008251612668818460208701612941565b9190910192915050565b60008351612684818460208801612941565b835190830190612698818360208801612941565b01949350505050565b6001600160a01b03858116825284166020820152604081018390526080606082018190526000906126d49083018461259a565b9695505050505050565b6000602080830181845280855180835260408601915060408160051b870101925083870160005b8281101561273357603f198886030184526127218583516125c6565b94509285019290850190600101612705565b5092979650505050505050565b6020815260006119bb602083018461259a565b60208082526022908201527f4e6f7420676f6f6420616464726573732064656c656761746520636f6e74726160408201526118dd60f21b606082015260800190565b60208082526032908201527f4552433732313a207472616e7366657220746f206e6f6e20455243373231526560408201527131b2b4bb32b91034b6b83632b6b2b73a32b960711b606082015260800190565b6020808252818101527f4f776e61626c653a2063616c6c6572206973206e6f7420746865206f776e6572604082015260600190565b60208082526031908201527f4552433732313a207472616e736665722063616c6c6572206973206e6f74206f6040820152701ddb995c881b9bdc88185c1c1c9bdd9959607a1b606082015260800190565b6020815260006119bb60208301846125c6565b6040516080810167ffffffffffffffff811182821017156128a3576128a3612a13565b60405290565b604051601f8201601f1916810167ffffffffffffffff811182821017156128d2576128d2612a13565b604052919050565b600067ffffffffffffffff8211156128f4576128f4612a13565b5060051b60200190565b60008219821115612911576129116129d1565b500190565b600082612925576129256129e7565b500490565b60008282101561293c5761293c6129d1565b500390565b60005b8381101561295c578181015183820152602001612944565b83811115610d575750506000910152565b600181811c9082168061298157607f821691505b60208210811415610d0557634e487b7160e01b600052602260045260246000fd5b60006000198214156129b6576129b66129d1565b5060010190565b6000826129cc576129cc6129e7565b500690565b634e487b7160e01b600052601160045260246000fd5b634e487b7160e01b600052601260045260246000fd5b634e487b7160e01b600052603260045260246000fd5b634e487b7160e01b600052604160045260246000fd5b6001600160e01b03198116811461084657600080fdfea264697066735822122067f6a84a2a1f3eb20d41aba34979a07f7d943b81d580fb7a36a4de94693ec41064736f6c6343000806003360806040526007805462ff00001916905534801561001c57600080fd5b5060405162001d1238038062001d1283398101604081905261003d9161019c565b6100463361014c565b600480546001600160a01b0319166001600160a01b03831617905560405162189a5960ea1b815267016345785d8a0000906003908101908152604051908190036020018120919091556b39ba30b93a20bab1ba34b7b760a11b8152600090600390600c01908152604051908190036020018120919091556b1c185c985b5cce10dbdd5b9d60a21b8152600590600390600c01908152604051908190036020018120919091556d1c185c985b5ccc8d4d90dbdd5b9d60921b8152600590600390600e01908152604051908190036020018120919091556a3a34b6b2a0bab1ba34b7b760a91b8152610e1090600390600b0190815260405190819003602001902055506101cc565b600080546001600160a01b038381166001600160a01b0319831681178455604051919092169283917f8be0079c531659141344cd1fd0a4f28419497f9722a3daafe3b4186f6b6457e09190a35050565b6000602082840312156101ae57600080fd5b81516001600160a01b03811681146101c557600080fd5b9392505050565b611b3680620001dc6000396000f3fe60806040526004361061011f5760003560e01c80638da5cb5b116100a0578063db774c7911610064578063db774c791461031d578063e984dfd814610325578063f26bf0b714610345578063f2fde38b14610373578063fe67a54b1461039357600080fd5b80638da5cb5b1461023a5780639c344cf21461026c578063b0b34e17146102b0578063c1e03728146102d0578063d6b730d2146102fd57600080fd5b80635c70bac3116100e75780635c70bac3146101b95780636b64c769146101d9578063715018a6146101ee5780638307dd451461020357806385e3c1d41461021857600080fd5b806302329a291461012457806326fa33ec146101465780633a79d2e5146101595780633cb119441461018457806341c0e1b5146101a4575b600080fd5b34801561013057600080fd5b5061014461013f3660046115d7565b6103a8565b005b6101446101543660046115f9565b6103f7565b34801561016557600080fd5b5061016e610553565b60405161017b9190611837565b60405180910390f35b34801561019057600080fd5b5061014461019f366004611636565b610636565b3480156101b057600080fd5b50610144610685565b3480156101c557600080fd5b506101446101d43660046114e5565b610769565b3480156101e557600080fd5b5061014461082c565b3480156101fa57600080fd5b5061014461088a565b34801561020f57600080fd5b506101446108c0565b34801561022457600080fd5b5061022d6108ea565b60405161017b9190611897565b34801561024657600080fd5b506000546001600160a01b03165b6040516001600160a01b03909116815260200161017b565b34801561027857600080fd5b5061028c6102873660046116b0565b610972565b6040805182516001600160a01b03168152602092830151928101929092520161017b565b3480156102bc57600080fd5b506102546102cb3660046114e5565b6109e3565b3480156102dc57600080fd5b506102f06102eb3660046116b0565b610a1f565b60405161017b919061192e565b34801561030957600080fd5b506101446103183660046114e5565b610ada565b610144610b26565b34801561033157600080fd5b506101446103403660046114e5565b610d6a565b34801561035157600080fd5b506103656103603660046115f9565b610e1a565b60405190815260200161017b565b34801561037f57600080fd5b5061014461038e3660046114e5565b610e42565b34801561039f57600080fd5b50610144610edd565b6000546001600160a01b031633146103db5760405162461bcd60e51b81526004016103d2906118f9565b60405180910390fd5b60078054911515620100000262ff000019909216919091179055565b6000600360405161041a906b1c185c985b5cce10dbdd5b9d60a21b8152600c0190565b90815260200160405180910390205467ffffffffffffffff81111561044157610441611ad5565b60405190808252806020026020018201604052801561046a578160200160208202803683370190505b50905060006003604051610492906d1c185c985b5ccc8d4d90dbdd5b9d60921b8152600e0190565b90815260200160405180910390205467ffffffffffffffff8111156104b9576104b9611ad5565b6040519080825280602002602001820160405280156104e2578160200160208202803683370190505b506004805460405163330dc9cd60e21b81529293506001600160a01b031691829163cc3727349161051b913391899189918991016117e2565b600060405180830381600087803b15801561053557600080fd5b505af1158015610549573d6000803e3d6000fd5b5050505050505050565b6060600060065467ffffffffffffffff81111561057257610572611ad5565b6040519080825280602002602001820160405280156105b757816020015b60408051808201909152600080825260208201528152602001906001900390816105905790505b50905060005b60065481101561063057600081815260026020908152604091829020825180840190935280546001600160a01b03168352600181015491830191909152835190919084908490811061061157610611611abf565b602002602001018190525050808061062890611a6e565b9150506105bd565b50919050565b6000546001600160a01b031633146106605760405162461bcd60e51b81526004016103d2906118f9565b8060038360405161067191906117c6565b908152604051908190036020019020555050565b6000546001600160a01b031633146106af5760405162461bcd60e51b81526004016103d2906118f9565b6040516a3a34b6b2a0bab1ba34b7b760a91b8152600390600b01908152604051908190036020018120546b39ba30b93a20bab1ba34b7b760a11b825290600390600c0190815260200160405180910390205461070b91906119e7565b42111561075a5760405162461bcd60e51b815260206004820152601760248201527f41756374696f6e206973206e6f742066696e697368656400000000000000000060448201526064016103d2565b6000546001600160a01b031680ff5b6000546001600160a01b031633146107935760405162461bcd60e51b81526004016103d2906118f9565b60005b60075460ff908116908216116108285760ff81166000908152600160205260409020546001600160a01b03838116911614156108165760ff8082166000908152600160205260408120805460ff60a01b191690556007805490921691906107fc83611a51565b91906101000a81548160ff021916908360ff160217905550505b8061082081611a89565b915050610796565b5050565b6000546001600160a01b031633146108565760405162461bcd60e51b81526004016103d2906118f9565b426003604051610878906b39ba30b93a20bab1ba34b7b760a11b8152600c0190565b90815260405190819003602001902055565b6000546001600160a01b031633146108b45760405162461bcd60e51b81526004016103d2906118f9565b6108be60006111c4565b565b6000546001600160a01b031633146108be5760405162461bcd60e51b81526004016103d2906118f9565b6004805460408051632178f07560e21b815290516060936001600160a01b039093169283926385e3c1d49281830192600092829003018186803b15801561093057600080fd5b505afa158015610944573d6000803e3d6000fd5b505050506040513d6000823e601f3d908101601f1916820160405261096c919081019061151f565b91505090565b60408051808201909152600080825260208201819052546001600160a01b031633146109b05760405162461bcd60e51b81526004016103d2906118f9565b50600090815260026020908152604091829020825180840190935280546001600160a01b03168352600101549082015290565b600080546001600160a01b03163314610a0e5760405162461bcd60e51b81526004016103d2906118f9565b50506004546001600160a01b031690565b610a53604051806080016040528060006001600160a01b031681526020016060815260200160608152602001606081525090565b6004805460405163183c06e560e31b81529182018490526001600160a01b031690819063c1e037289060240160006040518083038186803b158015610a9757600080fd5b505afa158015610aab573d6000803e3d6000fd5b505050506040513d6000823e601f3d908101601f19168201604052610ad3919081019061167b565b9392505050565b6000546001600160a01b03163314610b045760405162461bcd60e51b81526004016103d2906118f9565b600480546001600160a01b0319166001600160a01b0392909216919091179055565b60405162189a5960ea1b815260039081019081526020016040518091039020543411610b945760405162461bcd60e51b815260206004820152601c60248201527f52657175697265206d6f72652045544820666f722062696464696e670000000060448201526064016103d2565b604080516b39ba30b93a20bab1ba34b7b760a11b81526003600c820152905190819003602c01902054610bff5760405162461bcd60e51b8152602060048201526013602482015272105d58dd1a5bdb881b9bdd081cdd185c9d1959606a1b60448201526064016103d2565b6040516a3a34b6b2a0bab1ba34b7b760a91b8152600390600b01908152604051908190036020018120546b39ba30b93a20bab1ba34b7b760a11b825290600390600c01908152602001604051809103902054610c5b91906119e7565b4210610c9f5760405162461bcd60e51b8152602060048201526013602482015272105d58dd1a5bdb881a5cc8199a5b9a5cda1959606a1b60448201526064016103d2565b346003604051610cb89062189a5960ea1b815260030190565b9081526040805191829003602090810183209390935581810181523380835234848401818152600654600090815260028752849020945185546001600160a01b039091166001600160a01b031991821617865590516001909501949094556005805490941682179093559051918252917fe254e1bfba15aa47e1722f8875e9129681f2762faf4442f643cd2e2043bd27ab910160405180910390a260068054906000610d6383611a6e565b9190505550565b6000546001600160a01b03163314610d945760405162461bcd60e51b81526004016103d2906118f9565b6040805180820182526001600160a01b038084168252600160208084018281526007805460ff9081166000908152949093529583209451855491511515600160a01b026001600160a81b0319909216941693909317929092179092558254169190610dfe83611a89565b91906101000a81548160ff021916908360ff1602179055505050565b6000600382604051610e2c91906117c6565b9081526020016040518091039020549050919050565b6000546001600160a01b03163314610e6c5760405162461bcd60e51b81526004016103d2906118f9565b6001600160a01b038116610ed15760405162461bcd60e51b815260206004820152602660248201527f4f776e61626c653a206e6577206f776e657220697320746865207a65726f206160448201526564647265737360d01b60648201526084016103d2565b610eda816111c4565b50565b6000546001600160a01b03163314610f075760405162461bcd60e51b81526004016103d2906118f9565b6040516a3a34b6b2a0bab1ba34b7b760a91b8152600390600b01908152604051908190036020018120546b39ba30b93a20bab1ba34b7b760a11b825290600390600c01908152602001604051809103902054610f6391906119e7565b421015610fa85760405162461bcd60e51b8152602060048201526013602482015272105d58dd1a5bdb881a5cc8199a5b9a5cda1959606a1b60448201526064016103d2565b600754610100900460ff1615610ff45760405162461bcd60e51b815260206004820152601160248201527018dbdb1b1958dd1a5bdb881cd95b1b1959607a1b60448201526064016103d2565b6004546001600160a01b031660005b60065481116111ac576000818152600260205260409020546005546001600160a01b039081169116141561114d5760005b600a81101561114757604051630836387160e41b8152600481018290526001600160a01b0384169063beabacc890829063836387109060240160206040518083038186803b15801561108557600080fd5b505afa158015611099573d6000803e3d6000fd5b505050506040513d601f19601f820116820180604052508101906110bd9190611502565b6000858152600260205260409081902054905160e084901b6001600160e01b03191681526001600160a01b0392831660048201529116602482015260448101849052606401600060405180830381600087803b15801561111c57600080fd5b505af1158015611130573d6000803e3d6000fd5b50505050808061113f90611a6e565b915050611034565b5061119a565b600081815260026020526040808220805460019091015491516001600160a01b039091169282156108fc02929190818181858888f19350505050158015611198573d6000803e3d6000fd5b505b806111a481611a6e565b915050611003565b506007805461ff001916610100179055610eda611214565b600080546001600160a01b038381166001600160a01b0319831681178455604051919092169283917f8be0079c531659141344cd1fd0a4f28419497f9722a3daafe3b4186f6b6457e09190a35050565b6007546000906112279060ff16476119ff565b905060005b60075460ff908116908216116108285760ff808216600090815260016020819052604090912054600160a01b9004909116151514156112af5760ff81166000908152600160205260408082205490516001600160a01b039091169184156108fc02918591818181858888f193505050501580156112ad573d6000803e3d6000fd5b505b806112b981611a89565b91505061122c565b600082601f8301126112d257600080fd5b815160206112e76112e28361199b565b61196a565b80838252828201915082860187848660051b890101111561130757600080fd5b60005b858110156113265781518452928401929084019060010161130a565b5090979650505050505050565b600082601f83011261134457600080fd5b815160206113546112e28361199b565b80838252828201915082860187848660051b890101111561137457600080fd5b6000805b868110156113a257825160ff81168114611390578283fd5b85529385019391850191600101611378565b509198975050505050505050565b600082601f8301126113c157600080fd5b81356113cf6112e2826119bf565b8181528460208386010111156113e457600080fd5b816020850160208301376000918101602001919091529392505050565b60006080828403121561141357600080fd5b61141b611941565b9050815161142881611aeb565b8152602082015167ffffffffffffffff8082111561144557600080fd5b818401915084601f83011261145957600080fd5b81516114676112e2826119bf565b81815286602083860101111561147c57600080fd5b61148d826020830160208701611a21565b60208501525060408401519150808211156114a757600080fd5b6114b385838601611333565b604084015260608401519150808211156114cc57600080fd5b506114d9848285016112c1565b60608301525092915050565b6000602082840312156114f757600080fd5b8135610ad381611aeb565b60006020828403121561151457600080fd5b8151610ad381611aeb565b6000602080838503121561153257600080fd5b825167ffffffffffffffff8082111561154a57600080fd5b818501915085601f83011261155e57600080fd5b815161156c6112e28261199b565b80828252858201915085850189878560051b880101111561158c57600080fd5b6000805b858110156115c7578251878111156115a6578283fd5b6115b48d8b838c0101611401565b8652509388019391880191600101611590565b50919a9950505050505050505050565b6000602082840312156115e957600080fd5b81358015158114610ad357600080fd5b60006020828403121561160b57600080fd5b813567ffffffffffffffff81111561162257600080fd5b61162e848285016113b0565b949350505050565b6000806040838503121561164957600080fd5b823567ffffffffffffffff81111561166057600080fd5b61166c858286016113b0565b95602094909401359450505050565b60006020828403121561168d57600080fd5b815167ffffffffffffffff8111156116a457600080fd5b61162e84828501611401565b6000602082840312156116c257600080fd5b5035919050565b600081518084526020808501945080840160005b838110156116f9578151875295820195908201906001016116dd565b509495945050505050565b600081518084526020808501945080840160005b838110156116f957815160ff1687529582019590820190600101611718565b6000815180845261174f816020860160208601611a21565b601f01601f19169290920160200192915050565b60018060a01b038151168252600060208201516080602085015261178a6080850182611737565b9050604083015184820360408601526117a38282611704565b915050606083015184820360608601526117bd82826116c9565b95945050505050565b600082516117d8818460208701611a21565b9190910192915050565b6001600160a01b038516815260806020820181905260009061180690830186611737565b82810360408401526118188186611704565b9050828103606084015261182c81856116c9565b979650505050505050565b602080825282518282018190526000919060409081850190868401855b8281101561188a5761187a84835180516001600160a01b03168252602090810151910152565b9284019290850190600101611854565b5091979650505050505050565b6000602080830181845280855180835260408601915060408160051b870101925083870160005b828110156118ec57603f198886030184526118da858351611763565b945092850192908501906001016118be565b5092979650505050505050565b6020808252818101527f4f776e61626c653a2063616c6c6572206973206e6f7420746865206f776e6572604082015260600190565b602081526000610ad36020830184611763565b6040516080810167ffffffffffffffff8111828210171561196457611964611ad5565b60405290565b604051601f8201601f1916810167ffffffffffffffff8111828210171561199357611993611ad5565b604052919050565b600067ffffffffffffffff8211156119b5576119b5611ad5565b5060051b60200190565b600067ffffffffffffffff8211156119d9576119d9611ad5565b50601f01601f191660200190565b600082198211156119fa576119fa611aa9565b500190565b600082611a1c57634e487b7160e01b600052601260045260246000fd5b500490565b60005b83811015611a3c578181015183820152602001611a24565b83811115611a4b576000848401525b50505050565b600060ff821680611a6457611a64611aa9565b6000190192915050565b6000600019821415611a8257611a82611aa9565b5060010190565b600060ff821660ff811415611aa057611aa0611aa9565b60010192915050565b634e487b7160e01b600052601160045260246000fd5b634e487b7160e01b600052603260045260246000fd5b634e487b7160e01b600052604160045260246000fd5b6001600160a01b0381168114610eda57600080fdfea264697066735822122021a46b77b2799a506d49a36e7eb94c369d4c27876e12025b201bd9812626098864736f6c63430008060033a2646970667358221220a98fc2ce3af547617abab0ca5e0b0572174ee493a7ee91f8277d3077b270ee4d64736f6c63430008060033",
  "immutableReferences": {},
  "source": "// SPDX-License-Identifier: MIT\r\n// ADMIN CONTROLLER\r\npragma solidity ^0.8.0;\r\n\r\nimport '@openzeppelin/contracts/access/Ownable.sol';\r\nimport './AuctionContract.sol';\r\nimport './TokenContract.sol';\r\n\r\ncontract AdminController is Ownable {\r\n\r\n    constructor(){\r\n\r\n    }\r\n\r\n    struct ContractStruct {\r\n        string name;\r\n        string symbol;\r\n        address addrToken;\r\n        address addrAuction;\r\n        address owner;\r\n        uint256 id;\r\n        bool valid;\r\n    }\r\n\r\n    mapping( uint256 => ContractStruct ) _contracts;\r\n    uint256 countContract;\r\n\r\n    function getAllContracts() external view returns (ContractStruct[] memory){\r\n        ContractStruct[] memory result = new ContractStruct[](countContract);\r\n        for(uint256 i = 0; i < countContract; i++){\r\n            ContractStruct storage classe = _contracts[i];\r\n            result[i] = classe;\r\n        }\r\n        return result;\r\n    }\r\n\r\n    function createContract(string memory _name, string memory _symbol, string memory _initBaseURI) external {\r\n        TokenContract instanceTokenContract = new TokenContract(_name, _symbol, _initBaseURI);\r\n        AuctionContract instanceAuctionContract = new AuctionContract(address(instanceTokenContract));\r\n        _contracts[countContract] = ContractStruct(_name, _symbol,address(instanceTokenContract),address(instanceAuctionContract),msg.sender,countContract,true);\r\n        countContract++;\r\n    }\r\n\r\n    function addContract(string memory _name, string memory _symbol, string memory _initBaseURI, address tokenContract, address auctionContract ) external{\r\n        _contracts[countContract] = ContractStruct(_name, _symbol,tokenContract,auctionContract,msg.sender,countContract,true);\r\n        countContract++;\r\n    }\r\n\r\n    function updateContract(address oldAddrAuction, address newAddrAuction) external{\r\n        for(uint256 i = 0; i < countContract; i++){\r\n            if(_contracts[i].valid == true && _contracts[i].addrAuction == oldAddrAuction){\r\n                _contracts[i].addrAuction = newAddrAuction;\r\n                break;\r\n            }\r\n        }\r\n    }\r\n\r\n    function getMyContractAddress() external view returns(address){\r\n        for (uint256 index = 0; index < countContract; index++) {\r\n            if(_contracts[index].owner == msg.sender && _contracts[index].valid == true){\r\n                return _contracts[index].addrAuction;\r\n            }\r\n        }\r\n    }\r\n\r\n    function pauseAllContracts(bool pause) external onlyOwner {\r\n        for (uint256 index = 0; index < countContract; index++) {\r\n            if(_contracts[index].valid==true){\r\n                AuctionContract _auctionContrat = AuctionContract(_contracts[index].addrAuction);\r\n                _auctionContrat.pause(pause);\r\n                TokenContract _tokenContract = TokenContract(_contracts[index].addrToken);\r\n                _tokenContract.pause(pause);\r\n            }\r\n        }\r\n    }\r\n\r\n    /*function pauseOneContracts(bool pause) external onlyOwner {\r\n        for (uint256 index = 0; index < countContract; index++) {\r\n            if(_contracts[index].valid==true && ){\r\n                AuctionContract _auctionContrat = AuctionContract(_contracts[index].addrAuction);\r\n                _auctionContrat.pause(pause);\r\n                TokenContract _tokenContract = TokenContract(_contracts[index].addrToken);\r\n                _tokenContract.pause(pause);\r\n            }\r\n        }\r\n    }*/\r\n\r\n}\r\n",
  "sourcePath": "C:\\Users\\KevinDell'ova\\Desktop\\Inverse contracts\\contracts\\AdminContract.sol",
  "compiler": {
    "name": "solc",
    "version": "0.8.6+commit.11564f7e.Emscripten.clang"
  },
  "schemaVersion": "3.4.4",
  "updatedAt": "2022-03-06T17:02:32.506Z",
  "networkType": "ethereum",
  "devdoc": {
    "kind": "dev",
    "methods": {
      "owner()": {
        "details": "Returns the address of the current owner."
      },
      "renounceOwnership()": {
        "details": "Leaves the contract without owner. It will not be possible to call `onlyOwner` functions anymore. Can only be called by the current owner. NOTE: Renouncing ownership will leave the contract without an owner, thereby removing any functionality that is only available to the owner."
      },
      "transferOwnership(address)": {
        "details": "Transfers ownership of the contract to a new account (`newOwner`). Can only be called by the current owner."
      }
    },
    "version": 1
  },
  "userdoc": {
    "kind": "user",
    "methods": {},
    "version": 1
  }
}