{
  "contractName": "AuctionController",
  "abi": [
    {
      "inputs": [
        {
          "internalType": "address",
          "name": "_addressContract",
          "type": "address"
        }
      ],
      "stateMutability": "nonpayable",
      "type": "constructor"
    },
    {
      "anonymous": false,
      "inputs": [
        {
          "indexed": true,
          "internalType": "address",
          "name": "previousOwner",
          "type": "address"
        },
        {
          "indexed": true,
          "internalType": "address",
          "name": "newOwner",
          "type": "address"
        }
      ],
      "name": "OwnershipTransferred",
      "type": "event"
    },
    {
      "inputs": [],
      "name": "owner",
      "outputs": [
        {
          "internalType": "address",
          "name": "",
          "type": "address"
        }
      ],
      "stateMutability": "view",
      "type": "function",
      "constant": true
    },
    {
      "inputs": [],
      "name": "renounceOwnership",
      "outputs": [],
      "stateMutability": "nonpayable",
      "type": "function"
    },
    {
      "inputs": [
        {
          "internalType": "address",
          "name": "newOwner",
          "type": "address"
        }
      ],
      "name": "transferOwnership",
      "outputs": [],
      "stateMutability": "nonpayable",
      "type": "function"
    },
    {
      "inputs": [],
      "name": "createAuction",
      "outputs": [],
      "stateMutability": "nonpayable",
      "type": "function"
    },
    {
      "inputs": [
        {
          "internalType": "string",
          "name": "keyParams",
          "type": "string"
        }
      ],
      "name": "getParamsContract",
      "outputs": [
        {
          "internalType": "uint256",
          "name": "",
          "type": "uint256"
        }
      ],
      "stateMutability": "view",
      "type": "function",
      "constant": true
    },
    {
      "inputs": [
        {
          "internalType": "uint256",
          "name": "tokenId",
          "type": "uint256"
        }
      ],
      "name": "getTokenDetails",
      "outputs": [
        {
          "components": [
            {
              "internalType": "address",
              "name": "addrOwner",
              "type": "address"
            },
            {
              "internalType": "string",
              "name": "uri",
              "type": "string"
            },
            {
              "internalType": "uint8[]",
              "name": "params8",
              "type": "uint8[]"
            },
            {
              "internalType": "uint256[]",
              "name": "params256",
              "type": "uint256[]"
            }
          ],
          "internalType": "struct TokenContract.Token",
          "name": "",
          "type": "tuple"
        }
      ],
      "stateMutability": "view",
      "type": "function",
      "constant": true
    },
    {
      "inputs": [],
      "name": "getAllToken",
      "outputs": [
        {
          "components": [
            {
              "internalType": "address",
              "name": "addrOwner",
              "type": "address"
            },
            {
              "internalType": "string",
              "name": "uri",
              "type": "string"
            },
            {
              "internalType": "uint8[]",
              "name": "params8",
              "type": "uint8[]"
            },
            {
              "internalType": "uint256[]",
              "name": "params256",
              "type": "uint256[]"
            }
          ],
          "internalType": "struct TokenContract.Token[]",
          "name": "",
          "type": "tuple[]"
        }
      ],
      "stateMutability": "view",
      "type": "function",
      "constant": true
    },
    {
      "inputs": [
        {
          "internalType": "string",
          "name": "uri",
          "type": "string"
        }
      ],
      "name": "lazyMint",
      "outputs": [],
      "stateMutability": "payable",
      "type": "function",
      "payable": true
    },
    {
      "inputs": [
        {
          "internalType": "address",
          "name": "_addressContract",
          "type": "address"
        }
      ],
      "name": "setAddressContract",
      "outputs": [],
      "stateMutability": "nonpayable",
      "type": "function"
    },
    {
      "inputs": [
        {
          "internalType": "address",
          "name": "_addressContract",
          "type": "address"
        }
      ],
      "name": "getAddressContract",
      "outputs": [
        {
          "internalType": "address",
          "name": "",
          "type": "address"
        }
      ],
      "stateMutability": "view",
      "type": "function",
      "constant": true
    }
  ],
  "bytecode": "0x608060405234801561001057600080fd5b5060405161259b38038061259b83398101604081905261002f916100ad565b6100383361005d565b600480546001600160a01b0319166001600160a01b03929092169190911790556100dd565b600080546001600160a01b038381166001600160a01b0319831681178455604051919092169283917f8be0079c531659141344cd1fd0a4f28419497f9722a3daafe3b4186f6b6457e09190a35050565b6000602082840312156100bf57600080fd5b81516001600160a01b03811681146100d657600080fd5b9392505050565b6124af806100ec6000396000f3fe6080604052600436106200009d5760003560e01c8063c1e037281162000060578063c1e03728146200015c578063d6b730d21462000190578063f26bf0b714620001b5578063f2fde38b14620001e9578063f5811447146200020e57600080fd5b806326fa33ec14620000a2578063715018a614620000bb57806385e3c1d414620000d35780638da5cb5b1462000103578063b0b34e171462000137575b600080fd5b620000b9620000b336600462000b51565b62000226565b005b348015620000c857600080fd5b50620000b962000471565b348015620000e057600080fd5b50620000eb620004b5565b604051620000fa919062000dca565b60405180910390f35b3480156200011057600080fd5b506000546001600160a01b03165b6040516001600160a01b039091168152602001620000fa565b3480156200014457600080fd5b506200011e6200015636600462000a6d565b62000541565b3480156200016957600080fd5b50620001816200017b36600462000c14565b62000580565b604051620000fa919062000e65565b3480156200019d57600080fd5b50620000b9620001af36600462000a6d565b62000640565b348015620001c257600080fd5b50620001da620001d436600462000b51565b6200068f565b604051908152602001620000fa565b348015620001f657600080fd5b50620000b96200020836600462000a6d565b620006b9565b3480156200021b57600080fd5b50620000b96200075b565b6004805460405163f26bf0b760e01b8152602092810192909252600c60248301526b1c185c985b5cce10dbdd5b9d60a21b60448301526001600160a01b031690600090829063f26bf0b79060640160206040518083038186803b1580156200028d57600080fd5b505afa158015620002a2573d6000803e3d6000fd5b505050506040513d601f19601f82011682018060405250810190620002c8919062000c2e565b60405163f26bf0b760e01b815260206004820152600e60248201526d1c185c985b5ccc8d4d90dbdd5b9d60921b60448201529091506000906001600160a01b0384169063f26bf0b79060640160206040518083038186803b1580156200032d57600080fd5b505afa15801562000342573d6000803e3d6000fd5b505050506040513d601f19601f8201168201806040525081019062000368919062000c2e565b905060008267ffffffffffffffff81111562000388576200038862000f89565b604051908082528060200260200182016040528015620003b2578160200160208202803683370190505b50905060008267ffffffffffffffff811115620003d357620003d362000f89565b604051908082528060200260200182016040528015620003fd578160200160208202803683370190505b5060405163330dc9cd60e21b81529091506001600160a01b0386169063cc37273490620004359033908a908790879060040162000d6f565b600060405180830381600087803b1580156200045057600080fd5b505af115801562000465573d6000803e3d6000fd5b50505050505050505050565b6000546001600160a01b03163314620004a75760405162461bcd60e51b81526004016200049e9062000e30565b60405180910390fd5b620004b3600062000819565b565b6004805460408051632178f07560e21b815290516060936001600160a01b039093169283926385e3c1d49281830192600092829003018186803b158015620004fc57600080fd5b505afa15801562000511573d6000803e3d6000fd5b505050506040513d6000823e601f3d908101601f191682016040526200053b919081019062000a8d565b91505090565b600080546001600160a01b031633146200056f5760405162461bcd60e51b81526004016200049e9062000e30565b50506004546001600160a01b031690565b620005b5604051806080016040528060006001600160a01b031681526020016060815260200160608152602001606081525090565b6004805460405163183c06e560e31b81529182018490526001600160a01b031690819063c1e037289060240160006040518083038186803b158015620005fa57600080fd5b505afa1580156200060f573d6000803e3d6000fd5b505050506040513d6000823e601f3d908101601f1916820160405262000639919081019062000bd3565b9392505050565b6000546001600160a01b031633146200066d5760405162461bcd60e51b81526004016200049e9062000e30565b600480546001600160a01b0319166001600160a01b0392909216919091179055565b6000600182604051620006a3919062000d51565b9081526020016040518091039020549050919050565b6000546001600160a01b03163314620006e65760405162461bcd60e51b81526004016200049e9062000e30565b6001600160a01b0381166200074d5760405162461bcd60e51b815260206004820152602660248201527f4f776e61626c653a206e6577206f776e657220697320746865207a65726f206160448201526564647265737360d01b60648201526084016200049e565b620007588162000819565b50565b6000546001600160a01b03163314620007885760405162461bcd60e51b81526004016200049e9062000e30565b6004546040516001600160a01b0390911690620007a59062000869565b6001600160a01b039091168152602001604051809103906000f080158015620007d2573d6000803e3d6000fd5b5060038054600090815260026020526040812080546001600160a01b0319166001600160a01b039490941693909317909255805491620008128362000f5f565b9190505550565b600080546001600160a01b038381166001600160a01b0319831681178455604051919092169283917f8be0079c531659141344cd1fd0a4f28419497f9722a3daafe3b4186f6b6457e09190a35050565b6114c48062000fb683390190565b600082601f8301126200088957600080fd5b81516020620008a26200089c8362000eda565b62000ea6565b80838252828201915082860187848660051b8901011115620008c357600080fd5b60005b85811015620008e457815184529284019290840190600101620008c6565b5090979650505050505050565b600082601f8301126200090357600080fd5b81516020620009166200089c8362000eda565b80838252828201915082860187848660051b89010111156200093757600080fd5b6000805b868110156200096857825160ff8116811462000955578283fd5b855293850193918501916001016200093b565b509198975050505050505050565b6000608082840312156200098957600080fd5b6200099362000e7a565b90508151620009a28162000f9f565b8152602082015167ffffffffffffffff80821115620009c057600080fd5b818401915084601f830112620009d557600080fd5b8151620009e66200089c8262000f01565b818152866020838601011115620009fc57600080fd5b62000a0f82602083016020870162000f2c565b602085015250604084015191508082111562000a2a57600080fd5b62000a3885838601620008f1565b6040840152606084015191508082111562000a5257600080fd5b5062000a618482850162000877565b60608301525092915050565b60006020828403121562000a8057600080fd5b8135620006398162000f9f565b6000602080838503121562000aa157600080fd5b825167ffffffffffffffff8082111562000aba57600080fd5b818501915085601f83011262000acf57600080fd5b815162000ae06200089c8262000eda565b80828252858201915085850189878560051b880101111562000b0157600080fd5b6000805b8581101562000b415782518781111562000b1d578283fd5b62000b2d8d8b838c010162000976565b865250938801939188019160010162000b05565b50919a9950505050505050505050565b60006020828403121562000b6457600080fd5b813567ffffffffffffffff81111562000b7c57600080fd5b8201601f8101841362000b8e57600080fd5b803562000b9f6200089c8262000f01565b81815285602083850101111562000bb557600080fd5b81602084016020830137600091810160200191909152949350505050565b60006020828403121562000be657600080fd5b815167ffffffffffffffff81111562000bfe57600080fd5b62000c0c8482850162000976565b949350505050565b60006020828403121562000c2757600080fd5b5035919050565b60006020828403121562000c4157600080fd5b5051919050565b600081518084526020808501945080840160005b8381101562000c7a5781518752958201959082019060010162000c5c565b509495945050505050565b600081518084526020808501945080840160005b8381101562000c7a57815160ff168752958201959082019060010162000c99565b6000815180845262000cd481602086016020860162000f2c565b601f01601f19169290920160200192915050565b60018060a01b038151168252600060208201516080602085015262000d11608085018262000cba565b90506040830151848203604086015262000d2c828262000c85565b9150506060830151848203606086015262000d48828262000c48565b95945050505050565b6000825162000d6581846020870162000f2c565b9190910192915050565b6001600160a01b038516815260806020820181905260009062000d959083018662000cba565b828103604084015262000da9818662000c85565b9050828103606084015262000dbf818562000c48565b979650505050505050565b6000602080830181845280855180835260408601915060408160051b870101925083870160005b8281101562000e2357603f1988860301845262000e1085835162000ce8565b9450928501929085019060010162000df1565b5092979650505050505050565b6020808252818101527f4f776e61626c653a2063616c6c6572206973206e6f7420746865206f776e6572604082015260600190565b60208152600062000639602083018462000ce8565b6040516080810167ffffffffffffffff8111828210171562000ea05762000ea062000f89565b60405290565b604051601f8201601f1916810167ffffffffffffffff8111828210171562000ed25762000ed262000f89565b604052919050565b600067ffffffffffffffff82111562000ef75762000ef762000f89565b5060051b60200190565b600067ffffffffffffffff82111562000f1e5762000f1e62000f89565b50601f01601f191660200190565b60005b8381101562000f4957818101518382015260200162000f2f565b8381111562000f59576000848401525b50505050565b600060001982141562000f8257634e487b7160e01b600052601160045260246000fd5b5060010190565b634e487b7160e01b600052604160045260246000fd5b6001600160a01b03811681146200075857600080fdfe60806040526007805462ff00001916905534801561001c57600080fd5b506040516114c43803806114c483398101604081905261003b9161017b565b6100443361012b565b600480546001600160a01b0319166001600160a01b03831617905560405162189a5960ea1b815267016345785d8a0000906003908101908152604051908190036020018120919091556b39ba30b93a20bab1ba34b7b760a11b8152600090600390600c01908152604051908190036020018120919091556a3a34b6b2a0bab1ba34b7b760a91b8152610e1090600390600b01908152604051908190036020018120919091557f6e756d626572546f6b656e456e6441756374696f6e0000000000000000000000815260019060039060150190815260405190819003602001902055506101ab565b600080546001600160a01b038381166001600160a01b0319831681178455604051919092169283917f8be0079c531659141344cd1fd0a4f28419497f9722a3daafe3b4186f6b6457e09190a35050565b60006020828403121561018d57600080fd5b81516001600160a01b03811681146101a457600080fd5b9392505050565b61130a806101ba6000396000f3fe6080604052600436106100f35760003560e01c80639c344cf21161008a578063e984dfd811610059578063e984dfd814610282578063f26bf0b7146102a2578063f2fde38b146102d0578063fe67a54b146102f057600080fd5b80639c344cf2146101f6578063b0b34e171461023a578063d6b730d21461025a578063db774c791461027a57600080fd5b80635c70bac3116100c65780635c70bac31461017a5780636b64c7691461019a578063715018a6146101af5780638da5cb5b146101c457600080fd5b806302329a29146100f85780633a79d2e51461011a5780633cb119441461014557806341c0e1b514610165575b600080fd5b34801561010457600080fd5b5061011861011336600461105e565b610305565b005b34801561012657600080fd5b5061012f610354565b60405161013c9190611156565b60405180910390f35b34801561015157600080fd5b506101186101603660046110bd565b610437565b34801561017157600080fd5b50610118610486565b34801561018657600080fd5b5061011861019536600461101d565b610564565b3480156101a657600080fd5b50610118610627565b3480156101bb57600080fd5b50610118610685565b3480156101d057600080fd5b506000546001600160a01b03165b6040516001600160a01b03909116815260200161013c565b34801561020257600080fd5b50610216610211366004611102565b6106bb565b6040805182516001600160a01b03168152602092830151928101929092520161013c565b34801561024657600080fd5b506101de61025536600461101d565b61072c565b34801561026657600080fd5b5061011861027536600461101d565b610768565b6101186107b4565b34801561028e57600080fd5b5061011861029d36600461101d565b6109f8565b3480156102ae57600080fd5b506102c26102bd366004611080565b610aa8565b60405190815260200161013c565b3480156102dc57600080fd5b506101186102eb36600461101d565b610ad0565b3480156102fc57600080fd5b50610118610b6b565b6000546001600160a01b031633146103385760405162461bcd60e51b815260040161032f906111b6565b60405180910390fd5b60078054911515620100000262ff000019909216919091179055565b6060600060065467ffffffffffffffff811115610373576103736112a9565b6040519080825280602002602001820160405280156103b857816020015b60408051808201909152600080825260208201528152602001906001900390816103915790505b50905060005b60065481101561043157600081815260026020908152604091829020825180840190935280546001600160a01b03168352600181015491830191909152835190919084908490811061041257610412611293565b602002602001018190525050808061042990611242565b9150506103be565b50919050565b6000546001600160a01b031633146104615760405162461bcd60e51b815260040161032f906111b6565b80600383604051610472919061111b565b908152604051908190036020019020555050565b6000546001600160a01b031633146104b05760405162461bcd60e51b815260040161032f906111b6565b6040516a3a34b6b2a0bab1ba34b7b760a91b8152600390600b01908152604051908190036020018120546b39ba30b93a20bab1ba34b7b760a11b825290600390600c0190815260200160405180910390205461050c91906111eb565b4211156105555760405162461bcd60e51b8152602060048201526017602482015276105d58dd1a5bdb881a5cc81b9bdd08199a5b9a5cda1959604a1b604482015260640161032f565b6000546001600160a01b031680ff5b6000546001600160a01b0316331461058e5760405162461bcd60e51b815260040161032f906111b6565b60005b60075460ff908116908216116106235760ff81166000908152600160205260409020546001600160a01b03838116911614156106115760ff8082166000908152600160205260408120805460ff60a01b191690556007805490921691906105f783611225565b91906101000a81548160ff021916908360ff160217905550505b8061061b8161125d565b915050610591565b5050565b6000546001600160a01b031633146106515760405162461bcd60e51b815260040161032f906111b6565b426003604051610673906b39ba30b93a20bab1ba34b7b760a11b8152600c0190565b90815260405190819003602001902055565b6000546001600160a01b031633146106af5760405162461bcd60e51b815260040161032f906111b6565b6106b96000610e87565b565b60408051808201909152600080825260208201819052546001600160a01b031633146106f95760405162461bcd60e51b815260040161032f906111b6565b50600090815260026020908152604091829020825180840190935280546001600160a01b03168352600101549082015290565b600080546001600160a01b031633146107575760405162461bcd60e51b815260040161032f906111b6565b50506004546001600160a01b031690565b6000546001600160a01b031633146107925760405162461bcd60e51b815260040161032f906111b6565b600480546001600160a01b0319166001600160a01b0392909216919091179055565b60405162189a5960ea1b8152600390810190815260200160405180910390205434116108225760405162461bcd60e51b815260206004820152601c60248201527f52657175697265206d6f72652045544820666f722062696464696e6700000000604482015260640161032f565b604080516b39ba30b93a20bab1ba34b7b760a11b81526003600c820152905190819003602c0190205461088d5760405162461bcd60e51b8152602060048201526013602482015272105d58dd1a5bdb881b9bdd081cdd185c9d1959606a1b604482015260640161032f565b6040516a3a34b6b2a0bab1ba34b7b760a91b8152600390600b01908152604051908190036020018120546b39ba30b93a20bab1ba34b7b760a11b825290600390600c019081526020016040518091039020546108e991906111eb565b421061092d5760405162461bcd60e51b8152602060048201526013602482015272105d58dd1a5bdb881a5cc8199a5b9a5cda1959606a1b604482015260640161032f565b3460036040516109469062189a5960ea1b815260030190565b9081526040805191829003602090810183209390935581810181523380835234848401818152600654600090815260028752849020945185546001600160a01b039091166001600160a01b031991821617865590516001909501949094556005805490941682179093559051918252917fe254e1bfba15aa47e1722f8875e9129681f2762faf4442f643cd2e2043bd27ab910160405180910390a2600680549060006109f183611242565b9190505550565b6000546001600160a01b03163314610a225760405162461bcd60e51b815260040161032f906111b6565b6040805180820182526001600160a01b038084168252600160208084018281526007805460ff9081166000908152949093529583209451855491511515600160a01b026001600160a81b0319909216941693909317929092179092558254169190610a8c8361125d565b91906101000a81548160ff021916908360ff1602179055505050565b6000600382604051610aba919061111b565b9081526020016040518091039020549050919050565b6000546001600160a01b03163314610afa5760405162461bcd60e51b815260040161032f906111b6565b6001600160a01b038116610b5f5760405162461bcd60e51b815260206004820152602660248201527f4f776e61626c653a206e6577206f776e657220697320746865207a65726f206160448201526564647265737360d01b606482015260840161032f565b610b6881610e87565b50565b6000546001600160a01b03163314610b955760405162461bcd60e51b815260040161032f906111b6565b6040516a3a34b6b2a0bab1ba34b7b760a91b8152600390600b01908152604051908190036020018120546b39ba30b93a20bab1ba34b7b760a11b825290600390600c01908152602001604051809103902054610bf191906111eb565b421015610c3a5760405162461bcd60e51b8152602060048201526017602482015276105d58dd1a5bdb881a5cc81b9bdd08199a5b9a5cda1959604a1b604482015260640161032f565b600754610100900460ff1615610c865760405162461bcd60e51b815260206004820152601160248201527018dbdb1b1958dd1a5bdb881cd95b1b1959607a1b604482015260640161032f565b6004546001600160a01b031660005b6006548111610e6f576000818152600260205260409020546005546001600160a01b0390811691161415610e105760005b60405174373ab6b132b92a37b5b2b722b73220bab1ba34b7b760591b8152600390601501908152602001604051809103902054811015610e0a57604051630836387160e41b8152600481018290526001600160a01b0384169063beabacc890829063836387109060240160206040518083038186803b158015610d4857600080fd5b505afa158015610d5c573d6000803e3d6000fd5b505050506040513d601f19601f82011682018060405250810190610d809190611041565b6000858152600260205260409081902054905160e084901b6001600160e01b03191681526001600160a01b0392831660048201529116602482015260448101849052606401600060405180830381600087803b158015610ddf57600080fd5b505af1158015610df3573d6000803e3d6000fd5b505050508080610e0290611242565b915050610cc6565b50610e5d565b600081815260026020526040808220805460019091015491516001600160a01b039091169282156108fc02929190818181858888f19350505050158015610e5b573d6000803e3d6000fd5b505b80610e6781611242565b915050610c95565b506007805461ff001916610100179055610b68610ed7565b600080546001600160a01b038381166001600160a01b0319831681178455604051919092169283917f8be0079c531659141344cd1fd0a4f28419497f9722a3daafe3b4186f6b6457e09190a35050565b60075460ff16156106b957600754600090610ef59060ff1647611203565b905060005b60075460ff90811690821610156106235760ff808216600090815260016020819052604090912054600160a01b900490911615151415610f7e5760ff81166000908152600160205260408082205490516001600160a01b039091169184156108fc02918591818181858888f19350505050158015610f7c573d6000803e3d6000fd5b505b80610f888161125d565b915050610efa565b600082601f830112610fa157600080fd5b813567ffffffffffffffff80821115610fbc57610fbc6112a9565b604051601f8301601f19908116603f01168101908282118183101715610fe457610fe46112a9565b81604052838152866020858801011115610ffd57600080fd5b836020870160208301376000602085830101528094505050505092915050565b60006020828403121561102f57600080fd5b813561103a816112bf565b9392505050565b60006020828403121561105357600080fd5b815161103a816112bf565b60006020828403121561107057600080fd5b8135801515811461103a57600080fd5b60006020828403121561109257600080fd5b813567ffffffffffffffff8111156110a957600080fd5b6110b584828501610f90565b949350505050565b600080604083850312156110d057600080fd5b823567ffffffffffffffff8111156110e757600080fd5b6110f385828601610f90565b95602094909401359450505050565b60006020828403121561111457600080fd5b5035919050565b6000825160005b8181101561113c5760208186018101518583015201611122565b8181111561114b576000828501525b509190910192915050565b602080825282518282018190526000919060409081850190868401855b828110156111a95761119984835180516001600160a01b03168252602090810151910152565b9284019290850190600101611173565b5091979650505050505050565b6020808252818101527f4f776e61626c653a2063616c6c6572206973206e6f7420746865206f776e6572604082015260600190565b600082198211156111fe576111fe61127d565b500190565b60008261122057634e487b7160e01b600052601260045260246000fd5b500490565b600060ff8216806112385761123861127d565b6000190192915050565b60006000198214156112565761125661127d565b5060010190565b600060ff821660ff8114156112745761127461127d565b60010192915050565b634e487b7160e01b600052601160045260246000fd5b634e487b7160e01b600052603260045260246000fd5b634e487b7160e01b600052604160045260246000fd5b6001600160a01b0381168114610b6857600080fdfea2646970667358221220824d21bce4be82b98a44191b5cff2721e1ff91217f134597a94e0e3a2e0ebb4b64736f6c63430008060033a2646970667358221220e969aa6e16cf72c3b9b83fe8c11881cede8838923a7c12d61862e930838ac13f64736f6c63430008060033",
  "immutableReferences": {},
  "source": "// SPDX-License-Identifier: MIT\r\n// ADMIN CONTROLLER\r\npragma solidity ^0.8.0;\r\n\r\nimport './TokenContract.sol';\r\nimport './AuctionContract.sol';\r\nimport '@openzeppelin/contracts/access/Ownable.sol';\r\n\r\ncontract AuctionController is Ownable {\r\n\r\n    \r\n    mapping( string => uint ) paramsContract;//Allows great scalability, you can add or remove as many variables as you want\r\n    mapping( uint256 => AuctionContract ) _auctionContract;\r\n    uint256 countAuctionContract;\r\n    address addressContractToken;\r\n\r\n\r\n    constructor(address _addressContract) {\r\n        addressContractToken = _addressContract;\r\n    }\r\n\r\n    function createAuction() external onlyOwner {\r\n        _auctionContract[countAuctionContract] = new AuctionContract(addressContractToken);\r\n        countAuctionContract++;\r\n    }\r\n\r\n    /**\r\n    Get value of one element of array parameter of contract  \r\n    */\r\n    function getParamsContract(string memory keyParams) external view returns (uint256){\r\n        return paramsContract[keyParams];\r\n    }\r\n\r\n    /**\r\n    Recover the details of a token by passing its id\r\n     */\r\n    function getTokenDetails(uint256 tokenId) external view returns  (TokenContract.Token memory){\r\n        TokenContract contrat = TokenContract(addressContractToken);\r\n        return contrat.getTokenDetails(tokenId);\r\n    }\r\n\r\n    function getAllToken() external view returns (TokenContract.Token[] memory){\r\n        TokenContract contrat = TokenContract(addressContractToken);\r\n        return contrat.getAllToken();\r\n    }\r\n\r\n    function lazyMint(string memory uri) payable external{\r\n        TokenContract contrat = TokenContract(addressContractToken);\r\n        uint256 params8Count = contrat.getParamsContract(\"params8Count\");\r\n        uint256 params256Count = contrat.getParamsContract(\"params256Count\");\r\n        uint8[] memory params8 = new uint8[](params8Count);\r\n        uint256[] memory params256 = new uint256[](params256Count);\r\n        contrat.mint(msg.sender, uri, params8, params256);\r\n    }\r\n\r\n    /**\r\n    Update address of token\r\n    */\r\n    function setAddressContract(address _addressContract) external onlyOwner {\r\n        addressContractToken = _addressContract;\r\n    }\r\n\r\n    /**\r\n    get address of token\r\n    */\r\n    function getAddressContract(address _addressContract) external onlyOwner view returns(address) {\r\n        return addressContractToken;\r\n    }\r\n\r\n\r\n}\r\n\r\n",
  "sourcePath": "C:\\Users\\KevinDell'ova\\Desktop\\Inverse contracts\\contracts\\AuctionController.sol",
  "compiler": {
    "name": "solc",
    "version": "0.8.6+commit.11564f7e.Emscripten.clang"
  },
  "schemaVersion": "3.4.4",
  "updatedAt": "2022-03-08T10:34:37.643Z",
  "networkType": "ethereum",
  "devdoc": {
    "kind": "dev",
    "methods": {
      "owner()": {
        "details": "Returns the address of the current owner."
      },
      "renounceOwnership()": {
        "details": "Leaves the contract without owner. It will not be possible to call `onlyOwner` functions anymore. Can only be called by the current owner. NOTE: Renouncing ownership will leave the contract without an owner, thereby removing any functionality that is only available to the owner."
      },
      "transferOwnership(address)": {
        "details": "Transfers ownership of the contract to a new account (`newOwner`). Can only be called by the current owner."
      }
    },
    "version": 1
  },
  "userdoc": {
    "kind": "user",
    "methods": {
      "getAddressContract(address)": {
        "notice": "get address of token"
      },
      "getParamsContract(string)": {
        "notice": "Get value of one element of array parameter of contract  "
      },
      "getTokenDetails(uint256)": {
        "notice": "Recover the details of a token by passing its id"
      },
      "setAddressContract(address)": {
        "notice": "Update address of token"
      }
    },
    "version": 1
  }
}