{
  "contractName": "AuctionContract",
  "abi": [
    {
      "inputs": [
        {
          "internalType": "address",
          "name": "_addressContract",
          "type": "address"
        }
      ],
      "stateMutability": "nonpayable",
      "type": "constructor"
    },
    {
      "anonymous": false,
      "inputs": [
        {
          "indexed": true,
          "internalType": "address",
          "name": "addressBidder",
          "type": "address"
        },
        {
          "indexed": false,
          "internalType": "uint256",
          "name": "bid",
          "type": "uint256"
        }
      ],
      "name": "Bidders",
      "type": "event"
    },
    {
      "anonymous": false,
      "inputs": [
        {
          "indexed": true,
          "internalType": "address",
          "name": "previousOwner",
          "type": "address"
        },
        {
          "indexed": true,
          "internalType": "address",
          "name": "newOwner",
          "type": "address"
        }
      ],
      "name": "OwnershipTransferred",
      "type": "event"
    },
    {
      "inputs": [],
      "name": "owner",
      "outputs": [
        {
          "internalType": "address",
          "name": "",
          "type": "address"
        }
      ],
      "stateMutability": "view",
      "type": "function"
    },
    {
      "inputs": [],
      "name": "renounceOwnership",
      "outputs": [],
      "stateMutability": "nonpayable",
      "type": "function"
    },
    {
      "inputs": [
        {
          "internalType": "address",
          "name": "newOwner",
          "type": "address"
        }
      ],
      "name": "transferOwnership",
      "outputs": [],
      "stateMutability": "nonpayable",
      "type": "function"
    },
    {
      "inputs": [
        {
          "internalType": "string",
          "name": "keyParams",
          "type": "string"
        }
      ],
      "name": "getParamsContract",
      "outputs": [
        {
          "internalType": "uint256",
          "name": "",
          "type": "uint256"
        }
      ],
      "stateMutability": "view",
      "type": "function"
    },
    {
      "inputs": [],
      "name": "bidding",
      "outputs": [],
      "stateMutability": "payable",
      "type": "function"
    },
    {
      "inputs": [],
      "name": "getAllBidders",
      "outputs": [
        {
          "components": [
            {
              "internalType": "address",
              "name": "addressBidder",
              "type": "address"
            },
            {
              "internalType": "uint256",
              "name": "bid",
              "type": "uint256"
            }
          ],
          "internalType": "struct AuctionContract.Bidder[]",
          "name": "",
          "type": "tuple[]"
        }
      ],
      "stateMutability": "view",
      "type": "function"
    },
    {
      "inputs": [
        {
          "internalType": "uint256",
          "name": "bidderId",
          "type": "uint256"
        }
      ],
      "name": "getBidderDetails",
      "outputs": [
        {
          "components": [
            {
              "internalType": "address",
              "name": "addressBidder",
              "type": "address"
            },
            {
              "internalType": "uint256",
              "name": "bid",
              "type": "uint256"
            }
          ],
          "internalType": "struct AuctionContract.Bidder",
          "name": "",
          "type": "tuple"
        }
      ],
      "stateMutability": "view",
      "type": "function"
    },
    {
      "inputs": [
        {
          "internalType": "address",
          "name": "_address",
          "type": "address"
        }
      ],
      "name": "setRoyaltiesAdress",
      "outputs": [],
      "stateMutability": "nonpayable",
      "type": "function"
    },
    {
      "inputs": [
        {
          "internalType": "address",
          "name": "_address",
          "type": "address"
        }
      ],
      "name": "removeRoyaltiesAdress",
      "outputs": [],
      "stateMutability": "nonpayable",
      "type": "function"
    },
    {
      "inputs": [
        {
          "internalType": "address",
          "name": "_addressContract",
          "type": "address"
        }
      ],
      "name": "setAddressContract",
      "outputs": [],
      "stateMutability": "nonpayable",
      "type": "function"
    },
    {
      "inputs": [
        {
          "internalType": "address",
          "name": "_addressContract",
          "type": "address"
        }
      ],
      "name": "getAddressContract",
      "outputs": [
        {
          "internalType": "address",
          "name": "",
          "type": "address"
        }
      ],
      "stateMutability": "view",
      "type": "function"
    },
    {
      "inputs": [
        {
          "internalType": "string",
          "name": "keyParams",
          "type": "string"
        },
        {
          "internalType": "uint256",
          "name": "valueParams",
          "type": "uint256"
        }
      ],
      "name": "setParamsContract",
      "outputs": [],
      "stateMutability": "nonpayable",
      "type": "function"
    },
    {
      "inputs": [],
      "name": "startAuction",
      "outputs": [],
      "stateMutability": "nonpayable",
      "type": "function"
    },
    {
      "inputs": [],
      "name": "endAuction",
      "outputs": [],
      "stateMutability": "nonpayable",
      "type": "function"
    },
    {
      "inputs": [
        {
          "internalType": "bool",
          "name": "_state",
          "type": "bool"
        }
      ],
      "name": "pause",
      "outputs": [],
      "stateMutability": "nonpayable",
      "type": "function"
    },
    {
      "inputs": [],
      "name": "kill",
      "outputs": [],
      "stateMutability": "nonpayable",
      "type": "function"
    }
  ],
  "bytecode": "0x60806040526007805462ff00001916905534801561001c57600080fd5b506040516114c43803806114c483398101604081905261003b9161017b565b6100443361012b565b600480546001600160a01b0319166001600160a01b03831617905560405162189a5960ea1b815267016345785d8a0000906003908101908152604051908190036020018120919091556b39ba30b93a20bab1ba34b7b760a11b8152600090600390600c01908152604051908190036020018120919091556a3a34b6b2a0bab1ba34b7b760a91b8152610e1090600390600b01908152604051908190036020018120919091557f6e756d626572546f6b656e456e6441756374696f6e0000000000000000000000815260019060039060150190815260405190819003602001902055506101ab565b600080546001600160a01b038381166001600160a01b0319831681178455604051919092169283917f8be0079c531659141344cd1fd0a4f28419497f9722a3daafe3b4186f6b6457e09190a35050565b60006020828403121561018d57600080fd5b81516001600160a01b03811681146101a457600080fd5b9392505050565b61130a806101ba6000396000f3fe6080604052600436106100f35760003560e01c80639c344cf21161008a578063e984dfd811610059578063e984dfd814610282578063f26bf0b7146102a2578063f2fde38b146102d0578063fe67a54b146102f057600080fd5b80639c344cf2146101f6578063b0b34e171461023a578063d6b730d21461025a578063db774c791461027a57600080fd5b80635c70bac3116100c65780635c70bac31461017a5780636b64c7691461019a578063715018a6146101af5780638da5cb5b146101c457600080fd5b806302329a29146100f85780633a79d2e51461011a5780633cb119441461014557806341c0e1b514610165575b600080fd5b34801561010457600080fd5b5061011861011336600461105e565b610305565b005b34801561012657600080fd5b5061012f610354565b60405161013c9190611156565b60405180910390f35b34801561015157600080fd5b506101186101603660046110bd565b610437565b34801561017157600080fd5b50610118610486565b34801561018657600080fd5b5061011861019536600461101d565b610564565b3480156101a657600080fd5b50610118610627565b3480156101bb57600080fd5b50610118610685565b3480156101d057600080fd5b506000546001600160a01b03165b6040516001600160a01b03909116815260200161013c565b34801561020257600080fd5b50610216610211366004611102565b6106bb565b6040805182516001600160a01b03168152602092830151928101929092520161013c565b34801561024657600080fd5b506101de61025536600461101d565b61072c565b34801561026657600080fd5b5061011861027536600461101d565b610768565b6101186107b4565b34801561028e57600080fd5b5061011861029d36600461101d565b6109f8565b3480156102ae57600080fd5b506102c26102bd366004611080565b610aa8565b60405190815260200161013c565b3480156102dc57600080fd5b506101186102eb36600461101d565b610ad0565b3480156102fc57600080fd5b50610118610b6b565b6000546001600160a01b031633146103385760405162461bcd60e51b815260040161032f906111b6565b60405180910390fd5b60078054911515620100000262ff000019909216919091179055565b6060600060065467ffffffffffffffff811115610373576103736112a9565b6040519080825280602002602001820160405280156103b857816020015b60408051808201909152600080825260208201528152602001906001900390816103915790505b50905060005b60065481101561043157600081815260026020908152604091829020825180840190935280546001600160a01b03168352600181015491830191909152835190919084908490811061041257610412611293565b602002602001018190525050808061042990611242565b9150506103be565b50919050565b6000546001600160a01b031633146104615760405162461bcd60e51b815260040161032f906111b6565b80600383604051610472919061111b565b908152604051908190036020019020555050565b6000546001600160a01b031633146104b05760405162461bcd60e51b815260040161032f906111b6565b6040516a3a34b6b2a0bab1ba34b7b760a91b8152600390600b01908152604051908190036020018120546b39ba30b93a20bab1ba34b7b760a11b825290600390600c0190815260200160405180910390205461050c91906111eb565b4211156105555760405162461bcd60e51b8152602060048201526017602482015276105d58dd1a5bdb881a5cc81b9bdd08199a5b9a5cda1959604a1b604482015260640161032f565b6000546001600160a01b031680ff5b6000546001600160a01b0316331461058e5760405162461bcd60e51b815260040161032f906111b6565b60005b60075460ff908116908216116106235760ff81166000908152600160205260409020546001600160a01b03838116911614156106115760ff8082166000908152600160205260408120805460ff60a01b191690556007805490921691906105f783611225565b91906101000a81548160ff021916908360ff160217905550505b8061061b8161125d565b915050610591565b5050565b6000546001600160a01b031633146106515760405162461bcd60e51b815260040161032f906111b6565b426003604051610673906b39ba30b93a20bab1ba34b7b760a11b8152600c0190565b90815260405190819003602001902055565b6000546001600160a01b031633146106af5760405162461bcd60e51b815260040161032f906111b6565b6106b96000610e87565b565b60408051808201909152600080825260208201819052546001600160a01b031633146106f95760405162461bcd60e51b815260040161032f906111b6565b50600090815260026020908152604091829020825180840190935280546001600160a01b03168352600101549082015290565b600080546001600160a01b031633146107575760405162461bcd60e51b815260040161032f906111b6565b50506004546001600160a01b031690565b6000546001600160a01b031633146107925760405162461bcd60e51b815260040161032f906111b6565b600480546001600160a01b0319166001600160a01b0392909216919091179055565b60405162189a5960ea1b8152600390810190815260200160405180910390205434116108225760405162461bcd60e51b815260206004820152601c60248201527f52657175697265206d6f72652045544820666f722062696464696e6700000000604482015260640161032f565b604080516b39ba30b93a20bab1ba34b7b760a11b81526003600c820152905190819003602c0190205461088d5760405162461bcd60e51b8152602060048201526013602482015272105d58dd1a5bdb881b9bdd081cdd185c9d1959606a1b604482015260640161032f565b6040516a3a34b6b2a0bab1ba34b7b760a91b8152600390600b01908152604051908190036020018120546b39ba30b93a20bab1ba34b7b760a11b825290600390600c019081526020016040518091039020546108e991906111eb565b421061092d5760405162461bcd60e51b8152602060048201526013602482015272105d58dd1a5bdb881a5cc8199a5b9a5cda1959606a1b604482015260640161032f565b3460036040516109469062189a5960ea1b815260030190565b9081526040805191829003602090810183209390935581810181523380835234848401818152600654600090815260028752849020945185546001600160a01b039091166001600160a01b031991821617865590516001909501949094556005805490941682179093559051918252917fe254e1bfba15aa47e1722f8875e9129681f2762faf4442f643cd2e2043bd27ab910160405180910390a2600680549060006109f183611242565b9190505550565b6000546001600160a01b03163314610a225760405162461bcd60e51b815260040161032f906111b6565b6040805180820182526001600160a01b038084168252600160208084018281526007805460ff9081166000908152949093529583209451855491511515600160a01b026001600160a81b0319909216941693909317929092179092558254169190610a8c8361125d565b91906101000a81548160ff021916908360ff1602179055505050565b6000600382604051610aba919061111b565b9081526020016040518091039020549050919050565b6000546001600160a01b03163314610afa5760405162461bcd60e51b815260040161032f906111b6565b6001600160a01b038116610b5f5760405162461bcd60e51b815260206004820152602660248201527f4f776e61626c653a206e6577206f776e657220697320746865207a65726f206160448201526564647265737360d01b606482015260840161032f565b610b6881610e87565b50565b6000546001600160a01b03163314610b955760405162461bcd60e51b815260040161032f906111b6565b6040516a3a34b6b2a0bab1ba34b7b760a91b8152600390600b01908152604051908190036020018120546b39ba30b93a20bab1ba34b7b760a11b825290600390600c01908152602001604051809103902054610bf191906111eb565b421015610c3a5760405162461bcd60e51b8152602060048201526017602482015276105d58dd1a5bdb881a5cc81b9bdd08199a5b9a5cda1959604a1b604482015260640161032f565b600754610100900460ff1615610c865760405162461bcd60e51b815260206004820152601160248201527018dbdb1b1958dd1a5bdb881cd95b1b1959607a1b604482015260640161032f565b6004546001600160a01b031660005b6006548111610e6f576000818152600260205260409020546005546001600160a01b0390811691161415610e105760005b60405174373ab6b132b92a37b5b2b722b73220bab1ba34b7b760591b8152600390601501908152602001604051809103902054811015610e0a57604051630836387160e41b8152600481018290526001600160a01b0384169063beabacc890829063836387109060240160206040518083038186803b158015610d4857600080fd5b505afa158015610d5c573d6000803e3d6000fd5b505050506040513d601f19601f82011682018060405250810190610d809190611041565b6000858152600260205260409081902054905160e084901b6001600160e01b03191681526001600160a01b0392831660048201529116602482015260448101849052606401600060405180830381600087803b158015610ddf57600080fd5b505af1158015610df3573d6000803e3d6000fd5b505050508080610e0290611242565b915050610cc6565b50610e5d565b600081815260026020526040808220805460019091015491516001600160a01b039091169282156108fc02929190818181858888f19350505050158015610e5b573d6000803e3d6000fd5b505b80610e6781611242565b915050610c95565b506007805461ff001916610100179055610b68610ed7565b600080546001600160a01b038381166001600160a01b0319831681178455604051919092169283917f8be0079c531659141344cd1fd0a4f28419497f9722a3daafe3b4186f6b6457e09190a35050565b60075460ff16156106b957600754600090610ef59060ff1647611203565b905060005b60075460ff90811690821610156106235760ff808216600090815260016020819052604090912054600160a01b900490911615151415610f7e5760ff81166000908152600160205260408082205490516001600160a01b039091169184156108fc02918591818181858888f19350505050158015610f7c573d6000803e3d6000fd5b505b80610f888161125d565b915050610efa565b600082601f830112610fa157600080fd5b813567ffffffffffffffff80821115610fbc57610fbc6112a9565b604051601f8301601f19908116603f01168101908282118183101715610fe457610fe46112a9565b81604052838152866020858801011115610ffd57600080fd5b836020870160208301376000602085830101528094505050505092915050565b60006020828403121561102f57600080fd5b813561103a816112bf565b9392505050565b60006020828403121561105357600080fd5b815161103a816112bf565b60006020828403121561107057600080fd5b8135801515811461103a57600080fd5b60006020828403121561109257600080fd5b813567ffffffffffffffff8111156110a957600080fd5b6110b584828501610f90565b949350505050565b600080604083850312156110d057600080fd5b823567ffffffffffffffff8111156110e757600080fd5b6110f385828601610f90565b95602094909401359450505050565b60006020828403121561111457600080fd5b5035919050565b6000825160005b8181101561113c5760208186018101518583015201611122565b8181111561114b576000828501525b509190910192915050565b602080825282518282018190526000919060409081850190868401855b828110156111a95761119984835180516001600160a01b03168252602090810151910152565b9284019290850190600101611173565b5091979650505050505050565b6020808252818101527f4f776e61626c653a2063616c6c6572206973206e6f7420746865206f776e6572604082015260600190565b600082198211156111fe576111fe61127d565b500190565b60008261122057634e487b7160e01b600052601260045260246000fd5b500490565b600060ff8216806112385761123861127d565b6000190192915050565b60006000198214156112565761125661127d565b5060010190565b600060ff821660ff8114156112745761127461127d565b60010192915050565b634e487b7160e01b600052601160045260246000fd5b634e487b7160e01b600052603260045260246000fd5b634e487b7160e01b600052604160045260246000fd5b6001600160a01b0381168114610b6857600080fdfea2646970667358221220824d21bce4be82b98a44191b5cff2721e1ff91217f134597a94e0e3a2e0ebb4b64736f6c63430008060033",
  "immutableReferences": {},
  "source": "// SPDX-License-Identifier: MIT\r\n// ADMIN CONTROLLER\r\npragma solidity ^0.8.0;\r\n\r\nimport './TokenContract.sol';\r\nimport '@openzeppelin/contracts/access/Ownable.sol';\r\n\r\ncontract AuctionContract is Ownable {\r\n\r\n\r\n    struct RoyaltiesAddresses {\r\n        address addressRoyalties;\r\n        bool valid;\r\n    }\r\n\r\n    struct Bidder {\r\n        address addressBidder;\r\n        uint256 bid;\r\n    }\r\n    \r\n    event Bidders(address indexed addressBidder, uint256 bid);\r\n\r\n    mapping( uint8 => RoyaltiesAddresses ) private _addressRoyalties;\r\n    mapping( uint256 => Bidder ) private _bidders;\r\n    mapping( string => uint ) paramsContract;//Allows great scalability, you can add or remove as many variables as you want\r\n    address addressContractToken;\r\n    address lastBidder;\r\n    uint256 countBidder;\r\n    uint8 countAddressRoyalties;\r\n    bool endedAndTransfered;\r\n    bool paused = false;\r\n\r\n\r\n    constructor(address _addressContract) {\r\n        addressContractToken = _addressContract;\r\n        paramsContract[\"bid\"] = 100000000000000000;//set minimum price\r\n        paramsContract[\"startAuction\"] = 0;//start auction date\r\n        paramsContract[\"timeAuction\"] = 60 minutes;\r\n        paramsContract[\"numberTokenEndAuction\"] = 1;\r\n    }\r\n\r\n    /**\r\n    Get value of one element of array parameter of contract  \r\n    */\r\n    function getParamsContract(string memory keyParams) external view returns (uint256){\r\n        return paramsContract[keyParams];\r\n    }\r\n\r\n    /**\r\n    Bid for the collection\r\n    Verify that the bidder has sent more ETH than the initial and the last auction\r\n    Check that the auction has started and is not yet finished\r\n     */\r\n    function bidding() payable external {\r\n        require(msg.value>paramsContract[\"bid\"],\"Require more ETH for bidding\");\r\n        require(paramsContract[\"startAuction\"]!=0,\"Auction not started\");\r\n        require(block.timestamp<(paramsContract[\"startAuction\"]+paramsContract[\"timeAuction\"]),\"Auction is finished\");\r\n        paramsContract[\"bid\"] = msg.value;\r\n        _bidders[countBidder] = Bidder(msg.sender,msg.value);\r\n        lastBidder = msg.sender;\r\n        emit Bidders(msg.sender,msg.value);\r\n        countBidder++;\r\n    }\r\n\r\n    function getAllBidders() external view returns (Bidder[] memory){\r\n        Bidder[] memory result = new Bidder[](countBidder);\r\n        for(uint256 i = 0; i < countBidder; i++){\r\n            Bidder storage _bidder = _bidders[i];\r\n            result[i] = _bidder;\r\n        }\r\n        return result;\r\n    }\r\n\r\n    function getBidderDetails(uint256 bidderId) external onlyOwner view returns (Bidder memory){\r\n        return _bidders[bidderId];\r\n    }\r\n    \r\n    /**\r\n    Create addresses to which to send royalties and the percentages they will receive\r\n     */\r\n    function setRoyaltiesAdress(address _address) external onlyOwner {\r\n        _addressRoyalties[countAddressRoyalties] = RoyaltiesAddresses(_address,true);\r\n        countAddressRoyalties++;\r\n    }\r\n\r\n    /**\r\n    Remove addresses to which to send royalties and the percentages they will receive\r\n     */\r\n    function removeRoyaltiesAdress(address _address) external onlyOwner {\r\n        for (uint8 iRoyalties = 0; iRoyalties <= countAddressRoyalties; iRoyalties++) {\r\n            if(_addressRoyalties[iRoyalties].addressRoyalties == _address){\r\n                _addressRoyalties[iRoyalties].valid = false;\r\n                countAddressRoyalties--;\r\n            }\r\n        }\r\n    }\r\n\r\n    /**\r\n    Update address of token\r\n    */\r\n    function setAddressContract(address _addressContract) external onlyOwner {\r\n        addressContractToken = _addressContract;\r\n    }\r\n\r\n    /**\r\n    get address of token\r\n    */\r\n    function getAddressContract(address _addressContract) external onlyOwner view returns(address) {\r\n        return addressContractToken;\r\n    }\r\n\r\n    /**\r\n    Update dynamic array of params of this contract\r\n     */\r\n    function setParamsContract(string memory keyParams, uint valueParams) external onlyOwner {\r\n        paramsContract[keyParams] = valueParams;\r\n    }\r\n\r\n    /**\r\n    Start the auction now !\r\n     */\r\n    function startAuction() external onlyOwner {\r\n        paramsContract[\"startAuction\"] = block.timestamp;\r\n    }\r\n\r\n    /**\r\n    We refund all those who are not the last to bid\r\n    We send the collection to the winner of the auction\r\n    And we send royalties percent at address setted\r\n     */\r\n    function endAuction() external onlyOwner {\r\n        require(block.timestamp>=(paramsContract[\"startAuction\"]+paramsContract[\"timeAuction\"]),\"Auction is not finished\");\r\n        require(endedAndTransfered==false,\"collection selled\");\r\n        TokenContract contrat = TokenContract(addressContractToken);\r\n        for(uint256 i = 0; i <= countBidder; i++){\r\n            if(lastBidder == _bidders[i].addressBidder){\r\n                for (uint256 iToken = 0; iToken < paramsContract[\"numberTokenEndAuction\"]; iToken++) {\r\n                    contrat.transfer(contrat.getOwnerOf(iToken), _bidders[i].addressBidder, iToken);\r\n                }\r\n            }else{\r\n                payable(_bidders[i].addressBidder).transfer(_bidders[i].bid);\r\n            }\r\n        }\r\n        endedAndTransfered = true;\r\n        payRoyalties();\r\n    }\r\n\r\n    /**\r\n    Pay royalties\r\n    */\r\n    function payRoyalties() internal {\r\n        if(countAddressRoyalties>0){\r\n            uint256 percent = address(this).balance/countAddressRoyalties;\r\n            for (uint8 iRoyalties = 0; iRoyalties < countAddressRoyalties; iRoyalties++) {\r\n                if(_addressRoyalties[iRoyalties].valid == true){\r\n                    payable(_addressRoyalties[iRoyalties].addressRoyalties).transfer(percent);\r\n                }\r\n            }\r\n        }\r\n    }\r\n\r\n    /**\r\n    Temporarily lock the contract\r\n     */\r\n    function pause(bool _state) external onlyOwner {\r\n        paused = _state;\r\n    }\r\n\r\n    function kill() external onlyOwner {\r\n        require(block.timestamp<=(paramsContract[\"startAuction\"]+paramsContract[\"timeAuction\"]),\"Auction is not finished\");\r\n        address payable addr = payable(address(owner()));\r\n        selfdestruct(addr);\r\n    }\r\n\r\n}\r\n\r\n",
  "sourcePath": "C:\\Users\\KevinDell'ova\\Desktop\\Inverse contracts\\contracts\\AuctionContract.sol",
  "compiler": {
    "name": "solc",
    "version": "0.8.6+commit.11564f7e.Emscripten.clang"
  },
  "schemaVersion": "3.4.4",
  "updatedAt": "2022-03-08T10:34:35.260Z",
  "devdoc": {
    "kind": "dev",
    "methods": {
      "owner()": {
        "details": "Returns the address of the current owner."
      },
      "renounceOwnership()": {
        "details": "Leaves the contract without owner. It will not be possible to call `onlyOwner` functions anymore. Can only be called by the current owner. NOTE: Renouncing ownership will leave the contract without an owner, thereby removing any functionality that is only available to the owner."
      },
      "transferOwnership(address)": {
        "details": "Transfers ownership of the contract to a new account (`newOwner`). Can only be called by the current owner."
      }
    },
    "version": 1
  },
  "userdoc": {
    "kind": "user",
    "methods": {
      "bidding()": {
        "notice": "Bid for the collection Verify that the bidder has sent more ETH than the initial and the last auction Check that the auction has started and is not yet finished"
      },
      "endAuction()": {
        "notice": "We refund all those who are not the last to bid We send the collection to the winner of the auction And we send royalties percent at address setted"
      },
      "getAddressContract(address)": {
        "notice": "get address of token"
      },
      "getParamsContract(string)": {
        "notice": "Get value of one element of array parameter of contract  "
      },
      "pause(bool)": {
        "notice": "Temporarily lock the contract"
      },
      "removeRoyaltiesAdress(address)": {
        "notice": "Remove addresses to which to send royalties and the percentages they will receive"
      },
      "setAddressContract(address)": {
        "notice": "Update address of token"
      },
      "setParamsContract(string,uint256)": {
        "notice": "Update dynamic array of params of this contract"
      },
      "setRoyaltiesAdress(address)": {
        "notice": "Create addresses to which to send royalties and the percentages they will receive"
      },
      "startAuction()": {
        "notice": "Start the auction now !"
      }
    },
    "version": 1
  }
}